{
  "contractName": "ActorRegistry",
  "abi": [
    {
      "constant": false,
      "inputs": [
        {
          "name": "_type",
          "type": "uint8"
        },
        {
          "name": "_name",
          "type": "string"
        },
        {
          "name": "_username",
          "type": "bytes32"
        }
      ],
      "name": "registerActor",
      "outputs": [],
      "payable": false,
      "stateMutability": "nonpayable",
      "type": "function"
    },
    {
      "constant": false,
      "inputs": [
        {
          "name": "_username",
          "type": "bytes32"
        }
      ],
      "name": "validateUsername",
      "outputs": [
        {
          "name": "",
          "type": "bool"
        }
      ],
      "payable": false,
      "stateMutability": "nonpayable",
      "type": "function"
    },
    {
      "constant": true,
      "inputs": [
        {
          "name": "_actor",
          "type": "address"
        }
      ],
      "name": "getActorAddress",
      "outputs": [
        {
          "name": "",
          "type": "address"
        }
      ],
      "payable": false,
      "stateMutability": "view",
      "type": "function"
    },
    {
      "constant": true,
      "inputs": [
        {
          "name": "_actor",
          "type": "address"
        }
      ],
      "name": "getActorType",
      "outputs": [
        {
          "name": "",
          "type": "uint256"
        }
      ],
      "payable": false,
      "stateMutability": "view",
      "type": "function"
    },
    {
      "anonymous": false,
      "inputs": [
        {
          "indexed": false,
          "name": "_address",
          "type": "address"
        },
        {
          "indexed": false,
          "name": "_type",
          "type": "uint8"
        },
        {
          "indexed": false,
          "name": "_name",
          "type": "string"
        }
      ],
      "name": "OnRegisterActorEvent",
      "type": "event"
    }
  ],
  "bytecode": "0x6060604052341561000f57600080fd5b611b8a8061001e6000396000f300606060405260043610610062576000357c0100000000000000000000000000000000000000000000000000000000900463ffffffff16806336ccdaf21461006757806339c48d23146100dd578063804c68661461011c5780639ee677ed14610195575b600080fd5b341561007257600080fd5b6100db600480803560ff1690602001909190803590602001908201803590602001908080601f01602080910402602001604051908101604052809392919081815260200183838082843782019150505050505091908035600019169060200190919050506101e2565b005b34156100e857600080fd5b61010260048080356000191690602001909190505061062a565b604051808215151515815260200191505060405180910390f35b341561012757600080fd5b610153600480803573ffffffffffffffffffffffffffffffffffffffff169060200190919050506106d5565b604051808273ffffffffffffffffffffffffffffffffffffffff1673ffffffffffffffffffffffffffffffffffffffff16815260200191505060405180910390f35b34156101a057600080fd5b6101cc600480803573ffffffffffffffffffffffffffffffffffffffff1690602001909190505061073e565b6040518082815260200191505060405180910390f35b600360003373ffffffffffffffffffffffffffffffffffffffff1673ffffffffffffffffffffffffffffffffffffffff16815260200190815260200160002060009054906101000a900460ff1615151561023b57600080fd5b30338385610247610837565b808573ffffffffffffffffffffffffffffffffffffffff1673ffffffffffffffffffffffffffffffffffffffff1681526020018473ffffffffffffffffffffffffffffffffffffffff1673ffffffffffffffffffffffffffffffffffffffff168152602001806020018360038111156102bc57fe5b60ff168152602001828103825284818151815260200191508051906020019080838360005b838110156102fc5780820151818401526020810190506102e1565b50505050905090810190601f1680156103295780820380516001836020036101000a031916815260200191505b5095505050505050604051809103906000f080151561034757600080fd5b6000803373ffffffffffffffffffffffffffffffffffffffff1673ffffffffffffffffffffffffffffffffffffffff16815260200190815260200160002060006101000a81548173ffffffffffffffffffffffffffffffffffffffff021916908373ffffffffffffffffffffffffffffffffffffffff1602179055506000803373ffffffffffffffffffffffffffffffffffffffff1673ffffffffffffffffffffffffffffffffffffffff16815260200190815260200160002060009054906101000a900473ffffffffffffffffffffffffffffffffffffffff16600160003373ffffffffffffffffffffffffffffffffffffffff1673ffffffffffffffffffffffffffffffffffffffff16815260200190815260200160002060006101000a81548173ffffffffffffffffffffffffffffffffffffffff021916908373ffffffffffffffffffffffffffffffffffffffff16021790555080600260003373ffffffffffffffffffffffffffffffffffffffff1673ffffffffffffffffffffffffffffffffffffffff16815260200190815260200160002081600019169055506001600360003373ffffffffffffffffffffffffffffffffffffffff1673ffffffffffffffffffffffffffffffffffffffff16815260200190815260200160002060006101000a81548160ff0219169083151502179055507fc92c405d22ead04b87262af9c0afa15f3aa7e9aadc162a6542e2831c13de811b338484604051808473ffffffffffffffffffffffffffffffffffffffff1673ffffffffffffffffffffffffffffffffffffffff1681526020018360038111156105a557fe5b60ff16815260200180602001828103825283818151815260200191508051906020019080838360005b838110156105e95780820151818401526020810190506105ce565b50505050905090810190601f1680156106165780820380516001836020036101000a031916815260200191505b5094505050505060405180910390a1505050565b6000600360003373ffffffffffffffffffffffffffffffffffffffff1673ffffffffffffffffffffffffffffffffffffffff16815260200190815260200160002060009054906101000a900460ff16151561068457600080fd5b8160001916600260003373ffffffffffffffffffffffffffffffffffffffff1673ffffffffffffffffffffffffffffffffffffffff1681526020019081526020016000205460001916149050919050565b6000600160008373ffffffffffffffffffffffffffffffffffffffff1673ffffffffffffffffffffffffffffffffffffffff16815260200190815260200160002060009054906101000a900473ffffffffffffffffffffffffffffffffffffffff169050919050565b60008060008373ffffffffffffffffffffffffffffffffffffffff1673ffffffffffffffffffffffffffffffffffffffff16815260200190815260200160002060009054906101000a900473ffffffffffffffffffffffffffffffffffffffff1673ffffffffffffffffffffffffffffffffffffffff1663b706bc1d6000604051602001526040518163ffffffff167c0100000000000000000000000000000000000000000000000000000000028152600401602060405180830381600087803b151561080a57600080fd5b6102c65a03f1151561081b57600080fd5b50505060405180519050600381111561083057fe5b9050919050565b604051611317806108488339019056006060604052341561000f57600080fd5b60405161131738038061131783398101604052808051906020019091908051906020019091908051820191906020018051906020019091905050836000806101000a81548173ffffffffffffffffffffffffffffffffffffffff021916908373ffffffffffffffffffffffffffffffffffffffff160217905550816001908051906020019061009f9291906101c4565b5080600360146101000a81548160ff021916908360038111156100be57fe5b021790555082600260006101000a81548173ffffffffffffffffffffffffffffffffffffffff021916908373ffffffffffffffffffffffffffffffffffffffff160217905550600260009054906101000a900473ffffffffffffffffffffffffffffffffffffffff1661012f610244565b808273ffffffffffffffffffffffffffffffffffffffff1673ffffffffffffffffffffffffffffffffffffffff168152602001915050604051809103906000f080151561017b57600080fd5b600360006101000a81548173ffffffffffffffffffffffffffffffffffffffff021916908373ffffffffffffffffffffffffffffffffffffffff16021790555050505050610279565b828054600181600116156101000203166002900490600052602060002090601f016020900481019282601f1061020557805160ff1916838001178555610233565b82800160010185558215610233579182015b82811115610232578251825591602001919060010190610217565b5b5090506102409190610254565b5090565b60405161084580610ad283390190565b61027691905b8082111561027257600081600090555060010161025a565b5090565b90565b61084a806102886000396000f300606060405260043610610078576000357c0100000000000000000000000000000000000000000000000000000000900463ffffffff16806306fdde03146100885780631865c57d1461011657806359276d8114610211578063713b563f146102575780638da5cb5b146102ac578063b706bc1d14610301575b341561008357600080fd5b600080fd5b341561009357600080fd5b61009b610338565b6040518080602001828103825283818151815260200191508051906020019080838360005b838110156100db5780820151818401526020810190506100c0565b50505050905090810190601f1680156101085780820380516001836020036101000a031916815260200191505b509250505060405180910390f35b341561012157600080fd5b6101296103d6565b60405180806020018573ffffffffffffffffffffffffffffffffffffffff1673ffffffffffffffffffffffffffffffffffffffff1681526020018473ffffffffffffffffffffffffffffffffffffffff1673ffffffffffffffffffffffffffffffffffffffff168152602001838152602001828103825286818151815260200191508051906020019080838360005b838110156101d35780820151818401526020810190506101b8565b50505050905090810190601f1680156102005780820380516001836020036101000a031916815260200191505b509550505050505060405180910390f35b341561021c57600080fd5b610255600480803573ffffffffffffffffffffffffffffffffffffffff16906020019091908035600019169060200190919050506104f0565b005b341561026257600080fd5b61026a6107ab565b604051808273ffffffffffffffffffffffffffffffffffffffff1673ffffffffffffffffffffffffffffffffffffffff16815260200191505060405180910390f35b34156102b757600080fd5b6102bf6107d1565b604051808273ffffffffffffffffffffffffffffffffffffffff1673ffffffffffffffffffffffffffffffffffffffff16815260200191505060405180910390f35b341561030c57600080fd5b6103146107f7565b6040518082600381111561032457fe5b60ff16815260200191505060405180910390f35b60018054600181600116156101000203166002900480601f0160208091040260200160405190810160405280929190818152602001828054600181600116156101000203166002900480156103ce5780601f106103a3576101008083540402835291602001916103ce565b820191906000526020600020905b8154815290600101906020018083116103b157829003601f168201915b505050505081565b6103de61080a565b60008060006001600260009054906101000a900473ffffffffffffffffffffffffffffffffffffffff16600360009054906101000a900473ffffffffffffffffffffffffffffffffffffffff16600360149054906101000a900460ff16600381111561044657fe5b838054600181600116156101000203166002900480601f0160208091040260200160405190810160405280929190818152602001828054600181600116156101000203166002900480156104db5780601f106104b0576101008083540402835291602001916104db565b820191906000526020600020905b8154815290600101906020018083116104be57829003601f168201915b50505050509350935093509350935090919293565b600080600080600260009054906101000a900473ffffffffffffffffffffffffffffffffffffffff1673ffffffffffffffffffffffffffffffffffffffff163373ffffffffffffffffffffffffffffffffffffffff1614151561055257600080fd5b6002600381111561055f57fe5b600360149054906101000a900460ff16600381111561057a57fe5b1415151561058757600080fd5b6000809054906101000a900473ffffffffffffffffffffffffffffffffffffffff1693508373ffffffffffffffffffffffffffffffffffffffff1663804c6866876000604051602001526040518263ffffffff167c0100000000000000000000000000000000000000000000000000000000028152600401808273ffffffffffffffffffffffffffffffffffffffff1673ffffffffffffffffffffffffffffffffffffffff168152602001915050602060405180830381600087803b151561064e57600080fd5b6102c65a03f1151561065f57600080fd5b505050604051805190509250600073ffffffffffffffffffffffffffffffffffffffff168373ffffffffffffffffffffffffffffffffffffffff16141515156106a757600080fd5b829150600360009054906101000a900473ffffffffffffffffffffffffffffffffffffffff1690508073ffffffffffffffffffffffffffffffffffffffff1663d562ac548373ffffffffffffffffffffffffffffffffffffffff16876040518363ffffffff167c0100000000000000000000000000000000000000000000000000000000028152600401808373ffffffffffffffffffffffffffffffffffffffff1673ffffffffffffffffffffffffffffffffffffffff168152602001826000191660001916815260200192505050600060405180830381600087803b151561078f57600080fd5b6102c65a03f115156107a057600080fd5b505050505050505050565b600360009054906101000a900473ffffffffffffffffffffffffffffffffffffffff1681565b600260009054906101000a900473ffffffffffffffffffffffffffffffffffffffff1681565b600360149054906101000a900460ff1681565b6020604051908101604052806000815250905600a165627a7a72305820ef0cc118925a6abf91e1f69adc263af405830d69dbee214e442c46b7cd052ab300296060604052341561000f57600080fd5b60405160208061084583398101604052808051906020019091905050336000806101000a81548173ffffffffffffffffffffffffffffffffffffffff021916908373ffffffffffffffffffffffffffffffffffffffff160217905550806000806101000a81548173ffffffffffffffffffffffffffffffffffffffff021916908373ffffffffffffffffffffffffffffffffffffffff1602179055505061078a806100bb6000396000f300606060405260043610610083576000357c0100000000000000000000000000000000000000000000000000000000900463ffffffff16806306661abd14610093578063269499af146100bc5780638da5cb5b14610102578063aad46f6b14610157578063afadfa7a1461017e578063d562ac54146101e5578063f2fde38b1461022b575b341561008e57600080fd5b600080fd5b341561009e57600080fd5b6100a6610264565b6040518082815260200191505060405180910390f35b34156100c757600080fd5b610100600480803573ffffffffffffffffffffffffffffffffffffffff169060200190919080356000191690602001909190505061026a565b005b341561010d57600080fd5b61011561039f565b604051808273ffffffffffffffffffffffffffffffffffffffff1673ffffffffffffffffffffffffffffffffffffffff16815260200191505060405180910390f35b341561016257600080fd5b61017c6004808035600019169060200190919050506103c4565b005b341561018957600080fd5b6101a360048080356000191690602001909190505061046f565b604051808273ffffffffffffffffffffffffffffffffffffffff1673ffffffffffffffffffffffffffffffffffffffff16815260200191505060405180910390f35b34156101f057600080fd5b610229600480803573ffffffffffffffffffffffffffffffffffffffff16906020019091908035600019169060200190919050506104a2565b005b341561023657600080fd5b610262600480803573ffffffffffffffffffffffffffffffffffffffff16906020019091905050610609565b005b60015481565b60026000826000191660001916815260200190815260200160002060009054906101000a900460ff16151561039b57600160026000836000191660001916815260200190815260200160002060006101000a81548160ff0219169083151502179055508160036000836000191660001916815260200190815260200160002060006101000a81548173ffffffffffffffffffffffffffffffffffffffff021916908373ffffffffffffffffffffffffffffffffffffffff160217905550600180540160018190555080600019167fe31097b29f242d2c68c6450085a212fe5dac6bc43f0a708568775b1e9dbdd7af83604051808273ffffffffffffffffffffffffffffffffffffffff1673ffffffffffffffffffffffffffffffffffffffff16815260200191505060405180910390a25b5050565b6000809054906101000a900473ffffffffffffffffffffffffffffffffffffffff1681565b60026000826000191660001916815260200190815260200160002060009054906101000a900460ff1615156103f857600080fd5b60026000826000191660001916815260200190815260200160002060006101000a81549060ff021916905560036000826000191660001916815260200190815260200160002060006101000a81549073ffffffffffffffffffffffffffffffffffffffff0219169055600180540360018190555050565b60036020528060005260406000206000915054906101000a900473ffffffffffffffffffffffffffffffffffffffff1681565b60008060009054906101000a900473ffffffffffffffffffffffffffffffffffffffff1673ffffffffffffffffffffffffffffffffffffffff163373ffffffffffffffffffffffffffffffffffffffff161415156104ff57600080fd5b8290508073ffffffffffffffffffffffffffffffffffffffff1663269499af60036000856000191660001916815260200190815260200160002060009054906101000a900473ffffffffffffffffffffffffffffffffffffffff16846040518363ffffffff167c0100000000000000000000000000000000000000000000000000000000028152600401808373ffffffffffffffffffffffffffffffffffffffff1673ffffffffffffffffffffffffffffffffffffffff168152602001826000191660001916815260200192505050600060405180830381600087803b15156105e757600080fd5b6102c65a03f115156105f857600080fd5b505050610604826103c4565b505050565b6000809054906101000a900473ffffffffffffffffffffffffffffffffffffffff1673ffffffffffffffffffffffffffffffffffffffff163373ffffffffffffffffffffffffffffffffffffffff1614151561066457600080fd5b600073ffffffffffffffffffffffffffffffffffffffff168173ffffffffffffffffffffffffffffffffffffffff16141515156106a057600080fd5b8073ffffffffffffffffffffffffffffffffffffffff166000809054906101000a900473ffffffffffffffffffffffffffffffffffffffff1673ffffffffffffffffffffffffffffffffffffffff167f8be0079c531659141344cd1fd0a4f28419497f9722a3daafe3b4186f6b6457e060405160405180910390a3806000806101000a81548173ffffffffffffffffffffffffffffffffffffffff021916908373ffffffffffffffffffffffffffffffffffffffff160217905550505600a165627a7a72305820c795ffc7c8cfa70e218b54d54ab31b84b1c4186413c732d3db80b59f2cfeac040029a165627a7a72305820300fa9d53fafb551130901138d709bef37083322d4cdc16e8dc3afeb593fc01a0029",
  "source": "pragma solidity ^0.4.18;\r\n\r\nimport \"./Actor.sol\";\r\n\r\ncontract ActorRegistry {\r\n\r\n    event OnRegisterActorEvent(\r\n        address _address,\r\n        Actor.ActorType _type,\r\n        string _name\r\n    );\r\n\r\n    mapping (address => Actor) actors;\r\n    mapping (address => address) actorsRefs;\r\n    mapping (address => bytes32) usernames;\r\n    mapping (address => bool) registered;\r\n\r\n    modifier newCommer() {\r\n        require(!registered[msg.sender]);\r\n        _;\r\n    }\r\n\r\n    modifier onlyRegistered() {\r\n        require(registered[msg.sender]);\r\n        _;\r\n    }\r\n\r\n    function registerActor(Actor.ActorType _type, string _name, bytes32 _username) public newCommer {\r\n        actors[msg.sender] = new Actor(this, msg.sender, _name, _type);\r\n        actorsRefs[msg.sender] = actors[msg.sender];\r\n        usernames[msg.sender] = _username;\r\n        registered[msg.sender] = true;\r\n        OnRegisterActorEvent(msg.sender, _type, _name);\r\n    }\r\n\r\n    function getActorType(address _actor) public view returns (uint) {\r\n        return uint(Actor(actors[_actor]).actorType());\r\n    }\r\n\r\n    function getActorAddress(address _actor) public view returns (address) {\r\n        return actorsRefs[_actor];\r\n    }\r\n\r\n    function validateUsername(bytes32 _username) public onlyRegistered returns (bool) {\r\n        return usernames[msg.sender] == _username;\r\n    }\r\n    \r\n}",
  "sourcePath": "C:\\Users\\QK148GL\\Documents\\GitHub\\sensor-block-front-end\\contracts\\ActorRegistry.sol",
  "compiler": {
    "name": "solc",
    "version": "0.4.18+commit.9cf6e910.Emscripten.clang"
  },
  "schemaVersion": "1.0.1",
  "updatedAt": "2017-12-18T22:24:36.832Z"
}