{
  "contractName": "ActorRegistry",
  "abi": [
    {
      "constant": true,
      "inputs": [
        {
          "name": "_actor",
          "type": "address"
        }
      ],
      "name": "getActorAddress",
      "outputs": [
        {
          "name": "",
          "type": "address"
        }
      ],
      "payable": false,
      "stateMutability": "view",
      "type": "function"
    },
    {
      "constant": true,
      "inputs": [
        {
          "name": "_actor",
          "type": "address"
        }
      ],
      "name": "getActorType",
      "outputs": [
        {
          "name": "",
          "type": "uint256"
        }
      ],
      "payable": false,
      "stateMutability": "view",
      "type": "function"
    },
    {
      "constant": false,
      "inputs": [
        {
          "name": "_type",
          "type": "uint8"
        },
        {
          "name": "_name",
          "type": "string"
        }
      ],
      "name": "registerActor",
      "outputs": [],
      "payable": false,
      "stateMutability": "nonpayable",
      "type": "function"
    },
    {
      "anonymous": false,
      "inputs": [
        {
          "indexed": false,
          "name": "_address",
          "type": "address"
        },
        {
          "indexed": false,
          "name": "_type",
          "type": "uint8"
        },
        {
          "indexed": false,
          "name": "_name",
          "type": "string"
        }
      ],
      "name": "OnRegisterActorEvent",
      "type": "event"
    }
  ],
  "bytecode": "0x6060604052341561000f57600080fd5b6112948061001e6000396000f300606060405260043610610057576000357c0100000000000000000000000000000000000000000000000000000000900463ffffffff168063804c68661461005c5780639ee677ed146100d5578063e501392f14610122575b600080fd5b341561006757600080fd5b610093600480803573ffffffffffffffffffffffffffffffffffffffff1690602001909190505061018b565b604051808273ffffffffffffffffffffffffffffffffffffffff1673ffffffffffffffffffffffffffffffffffffffff16815260200191505060405180910390f35b34156100e057600080fd5b61010c600480803573ffffffffffffffffffffffffffffffffffffffff169060200190919050506101f4565b6040518082815260200191505060405180910390f35b341561012d57600080fd5b610189600480803560ff1690602001909190803590602001908201803590602001908080601f016020809104026020016040519081016040528093929190818152602001838380828437820191505050505050919050506102ed565b005b6000600160008373ffffffffffffffffffffffffffffffffffffffff1673ffffffffffffffffffffffffffffffffffffffff16815260200190815260200160002060009054906101000a900473ffffffffffffffffffffffffffffffffffffffff169050919050565b60008060008373ffffffffffffffffffffffffffffffffffffffff1673ffffffffffffffffffffffffffffffffffffffff16815260200190815260200160002060009054906101000a900473ffffffffffffffffffffffffffffffffffffffff1673ffffffffffffffffffffffffffffffffffffffff1663b706bc1d6000604051602001526040518163ffffffff167c0100000000000000000000000000000000000000000000000000000000028152600401602060405180830381600087803b15156102c057600080fd5b6102c65a03f115156102d157600080fd5b5050506040518051905060038111156102e657fe5b9050919050565b3381836102f8610607565b808473ffffffffffffffffffffffffffffffffffffffff1673ffffffffffffffffffffffffffffffffffffffff1681526020018060200183600381111561033b57fe5b60ff168152602001828103825284818151815260200191508051906020019080838360005b8381101561037b578082015181840152602081019050610360565b50505050905090810190601f1680156103a85780820380516001836020036101000a031916815260200191505b50945050505050604051809103906000f08015156103c557600080fd5b6000803373ffffffffffffffffffffffffffffffffffffffff1673ffffffffffffffffffffffffffffffffffffffff16815260200190815260200160002060006101000a81548173ffffffffffffffffffffffffffffffffffffffff021916908373ffffffffffffffffffffffffffffffffffffffff1602179055506000803373ffffffffffffffffffffffffffffffffffffffff1673ffffffffffffffffffffffffffffffffffffffff16815260200190815260200160002060009054906101000a900473ffffffffffffffffffffffffffffffffffffffff16600160003373ffffffffffffffffffffffffffffffffffffffff1673ffffffffffffffffffffffffffffffffffffffff16815260200190815260200160002060006101000a81548173ffffffffffffffffffffffffffffffffffffffff021916908373ffffffffffffffffffffffffffffffffffffffff1602179055507fc92c405d22ead04b87262af9c0afa15f3aa7e9aadc162a6542e2831c13de811b338383604051808473ffffffffffffffffffffffffffffffffffffffff1673ffffffffffffffffffffffffffffffffffffffff16815260200183600381111561058357fe5b60ff16815260200180602001828103825283818151815260200191508051906020019080838360005b838110156105c75780820151818401526020810190506105ac565b50505050905090810190601f1680156105f45780820380516001836020036101000a031916815260200191505b5094505050505060405180910390a15050565b604051610c51806106188339019056006060604052341561000f57600080fd5b604051610c51380380610c5183398101604052808051906020019091908051820191906020018051906020019091905050816000908051906020019061005692919061019b565b5080600260146101000a81548160ff0219169083600381111561007557fe5b021790555082600160006101000a81548173ffffffffffffffffffffffffffffffffffffffff021916908373ffffffffffffffffffffffffffffffffffffffff160217905550600260038111156100c857fe5b8160038111156100d457fe5b14151561019357600160009054906101000a900473ffffffffffffffffffffffffffffffffffffffff1661010661021b565b808273ffffffffffffffffffffffffffffffffffffffff1673ffffffffffffffffffffffffffffffffffffffff168152602001915050604051809103906000f080151561015257600080fd5b600260006101000a81548173ffffffffffffffffffffffffffffffffffffffff021916908373ffffffffffffffffffffffffffffffffffffffff1602179055505b505050610250565b828054600181600116156101000203166002900490600052602060002090601f016020900481019282601f106101dc57805160ff191683800117855561020a565b8280016001018555821561020a579182015b828111156102095782518255916020019190600101906101ee565b5b509050610217919061022b565b5090565b6040516106e88061056983390190565b61024d91905b80821115610249576000816000905550600101610231565b5090565b90565b61030a8061025f6000396000f300606060405260043610610062576000357c0100000000000000000000000000000000000000000000000000000000900463ffffffff16806306fdde0314610072578063713b563f146101005780638da5cb5b14610155578063b706bc1d146101aa575b341561006d57600080fd5b600080fd5b341561007d57600080fd5b6100856101e1565b6040518080602001828103825283818151815260200191508051906020019080838360005b838110156100c55780820151818401526020810190506100aa565b50505050905090810190601f1680156100f25780820380516001836020036101000a031916815260200191505b509250505060405180910390f35b341561010b57600080fd5b61011361027f565b604051808273ffffffffffffffffffffffffffffffffffffffff1673ffffffffffffffffffffffffffffffffffffffff16815260200191505060405180910390f35b341561016057600080fd5b6101686102a5565b604051808273ffffffffffffffffffffffffffffffffffffffff1673ffffffffffffffffffffffffffffffffffffffff16815260200191505060405180910390f35b34156101b557600080fd5b6101bd6102cb565b604051808260038111156101cd57fe5b60ff16815260200191505060405180910390f35b60008054600181600116156101000203166002900480601f0160208091040260200160405190810160405280929190818152602001828054600181600116156101000203166002900480156102775780601f1061024c57610100808354040283529160200191610277565b820191906000526020600020905b81548152906001019060200180831161025a57829003601f168201915b505050505081565b600260009054906101000a900473ffffffffffffffffffffffffffffffffffffffff1681565b600160009054906101000a900473ffffffffffffffffffffffffffffffffffffffff1681565b600260149054906101000a900460ff16815600a165627a7a72305820319efe8d05821e13101d1c1b059ab59c8f41f3b0a65e48390249b669dfb77f1200296060604052341561000f57600080fd5b6040516020806106e883398101604052808051906020019091905050336000806101000a81548173ffffffffffffffffffffffffffffffffffffffff021916908373ffffffffffffffffffffffffffffffffffffffff160217905550806000806101000a81548173ffffffffffffffffffffffffffffffffffffffff021916908373ffffffffffffffffffffffffffffffffffffffff1602179055505061062d806100bb6000396000f300606060405260043610610078576000357c0100000000000000000000000000000000000000000000000000000000900463ffffffff16806306661abd14610088578063269499af146100b15780638da5cb5b146100f7578063aad46f6b1461014c578063afadfa7a14610173578063f2fde38b146101da575b341561008357600080fd5b600080fd5b341561009357600080fd5b61009b610213565b6040518082815260200191505060405180910390f35b34156100bc57600080fd5b6100f5600480803573ffffffffffffffffffffffffffffffffffffffff1690602001909190803560001916906020019091905050610219565b005b341561010257600080fd5b61010a61034e565b604051808273ffffffffffffffffffffffffffffffffffffffff1673ffffffffffffffffffffffffffffffffffffffff16815260200191505060405180910390f35b341561015757600080fd5b610171600480803560001916906020019091905050610373565b005b341561017e57600080fd5b610198600480803560001916906020019091905050610479565b604051808273ffffffffffffffffffffffffffffffffffffffff1673ffffffffffffffffffffffffffffffffffffffff16815260200191505060405180910390f35b34156101e557600080fd5b610211600480803573ffffffffffffffffffffffffffffffffffffffff169060200190919050506104ac565b005b60015481565b60026000826000191660001916815260200190815260200160002060009054906101000a900460ff16151561034a57600160026000836000191660001916815260200190815260200160002060006101000a81548160ff0219169083151502179055508160036000836000191660001916815260200190815260200160002060006101000a81548173ffffffffffffffffffffffffffffffffffffffff021916908373ffffffffffffffffffffffffffffffffffffffff160217905550600180540160018190555080600019167fe31097b29f242d2c68c6450085a212fe5dac6bc43f0a708568775b1e9dbdd7af83604051808273ffffffffffffffffffffffffffffffffffffffff1673ffffffffffffffffffffffffffffffffffffffff16815260200191505060405180910390a25b5050565b6000809054906101000a900473ffffffffffffffffffffffffffffffffffffffff1681565b6000809054906101000a900473ffffffffffffffffffffffffffffffffffffffff1673ffffffffffffffffffffffffffffffffffffffff163373ffffffffffffffffffffffffffffffffffffffff161415156103ce57600080fd5b60026000826000191660001916815260200190815260200160002060009054906101000a900460ff16151561040257600080fd5b60026000826000191660001916815260200190815260200160002060006101000a81549060ff021916905560036000826000191660001916815260200190815260200160002060006101000a81549073ffffffffffffffffffffffffffffffffffffffff0219169055600180540360018190555050565b60036020528060005260406000206000915054906101000a900473ffffffffffffffffffffffffffffffffffffffff1681565b6000809054906101000a900473ffffffffffffffffffffffffffffffffffffffff1673ffffffffffffffffffffffffffffffffffffffff163373ffffffffffffffffffffffffffffffffffffffff1614151561050757600080fd5b600073ffffffffffffffffffffffffffffffffffffffff168173ffffffffffffffffffffffffffffffffffffffff161415151561054357600080fd5b8073ffffffffffffffffffffffffffffffffffffffff166000809054906101000a900473ffffffffffffffffffffffffffffffffffffffff1673ffffffffffffffffffffffffffffffffffffffff167f8be0079c531659141344cd1fd0a4f28419497f9722a3daafe3b4186f6b6457e060405160405180910390a3806000806101000a81548173ffffffffffffffffffffffffffffffffffffffff021916908373ffffffffffffffffffffffffffffffffffffffff160217905550505600a165627a7a723058209b5579436a3a8c57a1683df4d460b307935ca78bbe90da4305f3d2c1c68465e70029a165627a7a723058209af292841a35f8961af480b1da17c7a0a0c8e1c4d6d74aa77c6f1c5d67c63aa50029",
  "source": "pragma solidity ^0.4.18;\r\n\r\nimport \"./Actor.sol\";\r\n\r\ncontract ActorRegistry {\r\n\r\n    event OnRegisterActorEvent(\r\n        address _address,\r\n        Actor.ActorType _type,\r\n        string _name\r\n    );\r\n\r\n    mapping (address => Actor) actors;\r\n    mapping (address => address) actorsRefs;\r\n\r\n    function registerActor(Actor.ActorType _type, string _name) public {\r\n        actors[msg.sender] = new Actor(msg.sender, _name, _type);\r\n        actorsRefs[msg.sender] = actors[msg.sender];\r\n        OnRegisterActorEvent(msg.sender, _type, _name);\r\n    }\r\n\r\n    function getActorType(address _actor) public view returns (uint) {\r\n        return uint(Actor(actors[_actor]).actorType());\r\n    }\r\n\r\n    function getActorAddress(address _actor) public view returns (address) {\r\n        return actorsRefs[_actor];\r\n    }\r\n}",
  "sourcePath": "C:\\Users\\QK148GL\\Documents\\GitHub\\sensor-block\\contracts\\ActorRegistry.sol",
  "compiler": {
    "name": "solc",
    "version": "0.4.18+commit.9cf6e910.Emscripten.clang"
  },
  "schemaVersion": "1.0.1",
  "updatedAt": "2017-12-01T16:17:39.134Z"
}