{
  "contractName": "Actor",
  "abi": [
    {
      "constant": true,
      "inputs": [],
      "name": "name",
      "outputs": [
        {
          "name": "",
          "type": "string"
        }
      ],
      "payable": false,
      "stateMutability": "view",
      "type": "function"
    },
    {
      "constant": true,
      "inputs": [],
      "name": "database",
      "outputs": [
        {
          "name": "",
          "type": "address"
        }
      ],
      "payable": false,
      "stateMutability": "view",
      "type": "function"
    },
    {
      "constant": true,
      "inputs": [],
      "name": "owner",
      "outputs": [
        {
          "name": "",
          "type": "address"
        }
      ],
      "payable": false,
      "stateMutability": "view",
      "type": "function"
    },
    {
      "constant": true,
      "inputs": [],
      "name": "actorType",
      "outputs": [
        {
          "name": "",
          "type": "uint8"
        }
      ],
      "payable": false,
      "stateMutability": "view",
      "type": "function"
    },
    {
      "inputs": [
        {
          "name": "_ref",
          "type": "address"
        },
        {
          "name": "_name",
          "type": "string"
        },
        {
          "name": "_type",
          "type": "uint8"
        }
      ],
      "payable": false,
      "stateMutability": "nonpayable",
      "type": "constructor"
    },
    {
      "payable": false,
      "stateMutability": "nonpayable",
      "type": "fallback"
    }
  ],
  "bytecode": "0x6060604052341561000f57600080fd5b604051610c51380380610c5183398101604052808051906020019091908051820191906020018051906020019091905050816000908051906020019061005692919061019b565b5080600260146101000a81548160ff0219169083600381111561007557fe5b021790555082600160006101000a81548173ffffffffffffffffffffffffffffffffffffffff021916908373ffffffffffffffffffffffffffffffffffffffff160217905550600260038111156100c857fe5b8160038111156100d457fe5b14151561019357600160009054906101000a900473ffffffffffffffffffffffffffffffffffffffff1661010661021b565b808273ffffffffffffffffffffffffffffffffffffffff1673ffffffffffffffffffffffffffffffffffffffff168152602001915050604051809103906000f080151561015257600080fd5b600260006101000a81548173ffffffffffffffffffffffffffffffffffffffff021916908373ffffffffffffffffffffffffffffffffffffffff1602179055505b505050610250565b828054600181600116156101000203166002900490600052602060002090601f016020900481019282601f106101dc57805160ff191683800117855561020a565b8280016001018555821561020a579182015b828111156102095782518255916020019190600101906101ee565b5b509050610217919061022b565b5090565b6040516106e88061056983390190565b61024d91905b80821115610249576000816000905550600101610231565b5090565b90565b61030a8061025f6000396000f300606060405260043610610062576000357c0100000000000000000000000000000000000000000000000000000000900463ffffffff16806306fdde0314610072578063713b563f146101005780638da5cb5b14610155578063b706bc1d146101aa575b341561006d57600080fd5b600080fd5b341561007d57600080fd5b6100856101e1565b6040518080602001828103825283818151815260200191508051906020019080838360005b838110156100c55780820151818401526020810190506100aa565b50505050905090810190601f1680156100f25780820380516001836020036101000a031916815260200191505b509250505060405180910390f35b341561010b57600080fd5b61011361027f565b604051808273ffffffffffffffffffffffffffffffffffffffff1673ffffffffffffffffffffffffffffffffffffffff16815260200191505060405180910390f35b341561016057600080fd5b6101686102a5565b604051808273ffffffffffffffffffffffffffffffffffffffff1673ffffffffffffffffffffffffffffffffffffffff16815260200191505060405180910390f35b34156101b557600080fd5b6101bd6102cb565b604051808260038111156101cd57fe5b60ff16815260200191505060405180910390f35b60008054600181600116156101000203166002900480601f0160208091040260200160405190810160405280929190818152602001828054600181600116156101000203166002900480156102775780601f1061024c57610100808354040283529160200191610277565b820191906000526020600020905b81548152906001019060200180831161025a57829003601f168201915b505050505081565b600260009054906101000a900473ffffffffffffffffffffffffffffffffffffffff1681565b600160009054906101000a900473ffffffffffffffffffffffffffffffffffffffff1681565b600260149054906101000a900460ff16815600a165627a7a72305820319efe8d05821e13101d1c1b059ab59c8f41f3b0a65e48390249b669dfb77f1200296060604052341561000f57600080fd5b6040516020806106e883398101604052808051906020019091905050336000806101000a81548173ffffffffffffffffffffffffffffffffffffffff021916908373ffffffffffffffffffffffffffffffffffffffff160217905550806000806101000a81548173ffffffffffffffffffffffffffffffffffffffff021916908373ffffffffffffffffffffffffffffffffffffffff1602179055505061062d806100bb6000396000f300606060405260043610610078576000357c0100000000000000000000000000000000000000000000000000000000900463ffffffff16806306661abd14610088578063269499af146100b15780638da5cb5b146100f7578063aad46f6b1461014c578063afadfa7a14610173578063f2fde38b146101da575b341561008357600080fd5b600080fd5b341561009357600080fd5b61009b610213565b6040518082815260200191505060405180910390f35b34156100bc57600080fd5b6100f5600480803573ffffffffffffffffffffffffffffffffffffffff1690602001909190803560001916906020019091905050610219565b005b341561010257600080fd5b61010a61034e565b604051808273ffffffffffffffffffffffffffffffffffffffff1673ffffffffffffffffffffffffffffffffffffffff16815260200191505060405180910390f35b341561015757600080fd5b610171600480803560001916906020019091905050610373565b005b341561017e57600080fd5b610198600480803560001916906020019091905050610479565b604051808273ffffffffffffffffffffffffffffffffffffffff1673ffffffffffffffffffffffffffffffffffffffff16815260200191505060405180910390f35b34156101e557600080fd5b610211600480803573ffffffffffffffffffffffffffffffffffffffff169060200190919050506104ac565b005b60015481565b60026000826000191660001916815260200190815260200160002060009054906101000a900460ff16151561034a57600160026000836000191660001916815260200190815260200160002060006101000a81548160ff0219169083151502179055508160036000836000191660001916815260200190815260200160002060006101000a81548173ffffffffffffffffffffffffffffffffffffffff021916908373ffffffffffffffffffffffffffffffffffffffff160217905550600180540160018190555080600019167fe31097b29f242d2c68c6450085a212fe5dac6bc43f0a708568775b1e9dbdd7af83604051808273ffffffffffffffffffffffffffffffffffffffff1673ffffffffffffffffffffffffffffffffffffffff16815260200191505060405180910390a25b5050565b6000809054906101000a900473ffffffffffffffffffffffffffffffffffffffff1681565b6000809054906101000a900473ffffffffffffffffffffffffffffffffffffffff1673ffffffffffffffffffffffffffffffffffffffff163373ffffffffffffffffffffffffffffffffffffffff161415156103ce57600080fd5b60026000826000191660001916815260200190815260200160002060009054906101000a900460ff16151561040257600080fd5b60026000826000191660001916815260200190815260200160002060006101000a81549060ff021916905560036000826000191660001916815260200190815260200160002060006101000a81549073ffffffffffffffffffffffffffffffffffffffff0219169055600180540360018190555050565b60036020528060005260406000206000915054906101000a900473ffffffffffffffffffffffffffffffffffffffff1681565b6000809054906101000a900473ffffffffffffffffffffffffffffffffffffffff1673ffffffffffffffffffffffffffffffffffffffff163373ffffffffffffffffffffffffffffffffffffffff1614151561050757600080fd5b600073ffffffffffffffffffffffffffffffffffffffff168173ffffffffffffffffffffffffffffffffffffffff161415151561054357600080fd5b8073ffffffffffffffffffffffffffffffffffffffff166000809054906101000a900473ffffffffffffffffffffffffffffffffffffffff1673ffffffffffffffffffffffffffffffffffffffff167f8be0079c531659141344cd1fd0a4f28419497f9722a3daafe3b4186f6b6457e060405160405180910390a3806000806101000a81548173ffffffffffffffffffffffffffffffffffffffff021916908373ffffffffffffffffffffffffffffffffffffffff160217905550505600a165627a7a723058209b5579436a3a8c57a1683df4d460b307935ca78bbe90da4305f3d2c1c68465e70029",
  "source": "pragma solidity ^0.4.18;\r\n\r\nimport \"./VehiculeDatabase.sol\";\r\n\r\ncontract Actor {\r\n\r\n    enum ActorType { Manufacturer, Dealer, ServiceShop, Owner }\r\n\r\n    string public name;\r\n    address public owner;\r\n    address public database;\r\n    ActorType public actorType;\r\n\r\n    function () public {\r\n        revert();\r\n    }\r\n\r\n    function Actor(address _ref, string _name, ActorType _type) public {\r\n        name = _name;\r\n        actorType = _type;\r\n        owner = _ref;\r\n        if (_type != ActorType.ServiceShop) {\r\n            database = new VehiculeDatabase(owner);\r\n        }\r\n    }\r\n}",
  "sourcePath": "C:\\Users\\QK148GL\\Documents\\GitHub\\sensor-block\\contracts\\Actor.sol",
  "compiler": {
    "name": "solc",
    "version": "0.4.18+commit.9cf6e910.Emscripten.clang"
  },
  "schemaVersion": "1.0.1",
  "updatedAt": "2017-12-01T16:17:08.753Z"
}