{
  "contractName": "ServiceShop",
  "abi": [
    {
      "constant": false,
      "inputs": [
        {
          "name": "_vehicule",
          "type": "address"
        },
        {
          "name": "_details",
          "type": "string"
        },
        {
          "name": "_data",
          "type": "string"
        }
      ],
      "name": "doService",
      "outputs": [],
      "payable": false,
      "stateMutability": "nonpayable",
      "type": "function"
    },
    {
      "constant": false,
      "inputs": [
        {
          "name": "_vehicule",
          "type": "address"
        },
        {
          "name": "_vin",
          "type": "bytes32"
        },
        {
          "name": "_comments",
          "type": "string"
        },
        {
          "name": "_data",
          "type": "string"
        }
      ],
      "name": "releaseFromService",
      "outputs": [],
      "payable": false,
      "stateMutability": "nonpayable",
      "type": "function"
    },
    {
      "constant": false,
      "inputs": [
        {
          "name": "_vehicule",
          "type": "address"
        },
        {
          "name": "_vin",
          "type": "bytes32"
        },
        {
          "name": "_comments",
          "type": "string"
        },
        {
          "name": "_data",
          "type": "string"
        }
      ],
      "name": "receiveForService",
      "outputs": [],
      "payable": false,
      "stateMutability": "nonpayable",
      "type": "function"
    },
    {
      "inputs": [
        {
          "name": "_registry",
          "type": "address"
        }
      ],
      "payable": false,
      "stateMutability": "nonpayable",
      "type": "constructor"
    },
    {
      "payable": false,
      "stateMutability": "nonpayable",
      "type": "fallback"
    }
  ],
  "bytecode": "0x6060604052341561000f57600080fd5b604051602080610f3083398101604052808051906020019091905050806000806101000a81548173ffffffffffffffffffffffffffffffffffffffff021916908373ffffffffffffffffffffffffffffffffffffffff16021790555050610eb58061007b6000396000f300606060405260043610610057576000357c0100000000000000000000000000000000000000000000000000000000900463ffffffff1680631bca4da214610067578063c53f59af14610126578063ca4d8e05146101f2575b341561006257600080fd5b600080fd5b341561007257600080fd5b610124600480803573ffffffffffffffffffffffffffffffffffffffff1690602001909190803590602001908201803590602001908080601f0160208091040260200160405190810160405280939291908181526020018383808284378201915050505050509190803590602001908201803590602001908080601f016020809104026020016040519081016040528093929190818152602001838380828437820191505050505050919050506102be565b005b341561013157600080fd5b6101f0600480803573ffffffffffffffffffffffffffffffffffffffff169060200190919080356000191690602001909190803590602001908201803590602001908080601f0160208091040260200160405190810160405280939291908181526020018383808284378201915050505050509190803590602001908201803590602001908080601f01602080910402602001604051908101604052809392919081815260200183838082843782019150505050505091905050610565565b005b34156101fd57600080fd5b6102bc600480803573ffffffffffffffffffffffffffffffffffffffff169060200190919080356000191690602001909190803590602001908201803590602001908080601f0160208091040260200160405190810160405280939291908181526020018383808284378201915050505050509190803590602001908201803590602001908080601f016020809104026020016040519081016040528093929190818152602001838380828437820191505050505050919050506109dd565b005b6000806000809054906101000a900473ffffffffffffffffffffffffffffffffffffffff169050600260038111156102f257fe5b8173ffffffffffffffffffffffffffffffffffffffff16639ee677ed336000604051602001526040518263ffffffff167c0100000000000000000000000000000000000000000000000000000000028152600401808273ffffffffffffffffffffffffffffffffffffffff1673ffffffffffffffffffffffffffffffffffffffff168152602001915050602060405180830381600087803b151561039557600080fd5b6102c65a03f115156103a657600080fd5b505050604051805190501415156103bc57600080fd5b8491508173ffffffffffffffffffffffffffffffffffffffff1663c873b06660043387876040518563ffffffff167c01000000000000000000000000000000000000000000000000000000000281526004018085600a81111561041b57fe5b60ff1681526020018473ffffffffffffffffffffffffffffffffffffffff1673ffffffffffffffffffffffffffffffffffffffff1681526020018060200180602001838103835285818151815260200191508051906020019080838360005b8381101561049557808201518184015260208101905061047a565b50505050905090810190601f1680156104c25780820380516001836020036101000a031916815260200191505b50838103825284818151815260200191508051906020019080838360005b838110156104fb5780820151818401526020810190506104e0565b50505050905090810190601f1680156105285780820380516001836020036101000a031916815260200191505b509650505050505050600060405180830381600087803b151561054a57600080fd5b6102c65a03f1151561055b57600080fd5b5050505050505050565b6000806000806000806000809054906101000a900473ffffffffffffffffffffffffffffffffffffffff1690506002600381111561059f57fe5b8173ffffffffffffffffffffffffffffffffffffffff16639ee677ed336000604051602001526040518263ffffffff167c0100000000000000000000000000000000000000000000000000000000028152600401808273ffffffffffffffffffffffffffffffffffffffff1673ffffffffffffffffffffffffffffffffffffffff168152602001915050602060405180830381600087803b151561064257600080fd5b6102c65a03f1151561065357600080fd5b5050506040518051905014151561066957600080fd5b6000809054906101000a900473ffffffffffffffffffffffffffffffffffffffff1695508573ffffffffffffffffffffffffffffffffffffffff1663804c6866336000604051602001526040518263ffffffff167c0100000000000000000000000000000000000000000000000000000000028152600401808273ffffffffffffffffffffffffffffffffffffffff1673ffffffffffffffffffffffffffffffffffffffff168152602001915050602060405180830381600087803b151561073057600080fd5b6102c65a03f1151561074157600080fd5b505050604051805190509450600073ffffffffffffffffffffffffffffffffffffffff168573ffffffffffffffffffffffffffffffffffffffff161415151561078957600080fd5b8493508373ffffffffffffffffffffffffffffffffffffffff1692508273ffffffffffffffffffffffffffffffffffffffff1663aad46f6b8a6040518263ffffffff167c0100000000000000000000000000000000000000000000000000000000028152600401808260001916600019168152602001915050600060405180830381600087803b151561081b57600080fd5b6102c65a03f1151561082c57600080fd5b5050508991508173ffffffffffffffffffffffffffffffffffffffff1663c873b0666008338b8b6040518563ffffffff167c01000000000000000000000000000000000000000000000000000000000281526004018085600a81111561088e57fe5b60ff1681526020018473ffffffffffffffffffffffffffffffffffffffff1673ffffffffffffffffffffffffffffffffffffffff1681526020018060200180602001838103835285818151815260200191508051906020019080838360005b838110156109085780820151818401526020810190506108ed565b50505050905090810190601f1680156109355780820380516001836020036101000a031916815260200191505b50838103825284818151815260200191508051906020019080838360005b8381101561096e578082015181840152602081019050610953565b50505050905090810190601f16801561099b5780820380516001836020036101000a031916815260200191505b509650505050505050600060405180830381600087803b15156109bd57600080fd5b6102c65a03f115156109ce57600080fd5b50505050505050505050505050565b6000806000806000806000809054906101000a900473ffffffffffffffffffffffffffffffffffffffff16905060026003811115610a1757fe5b8173ffffffffffffffffffffffffffffffffffffffff16639ee677ed336000604051602001526040518263ffffffff167c0100000000000000000000000000000000000000000000000000000000028152600401808273ffffffffffffffffffffffffffffffffffffffff1673ffffffffffffffffffffffffffffffffffffffff168152602001915050602060405180830381600087803b1515610aba57600080fd5b6102c65a03f11515610acb57600080fd5b50505060405180519050141515610ae157600080fd5b6000809054906101000a900473ffffffffffffffffffffffffffffffffffffffff1695508573ffffffffffffffffffffffffffffffffffffffff1663804c6866336000604051602001526040518263ffffffff167c0100000000000000000000000000000000000000000000000000000000028152600401808273ffffffffffffffffffffffffffffffffffffffff1673ffffffffffffffffffffffffffffffffffffffff168152602001915050602060405180830381600087803b1515610ba857600080fd5b6102c65a03f11515610bb957600080fd5b505050604051805190509450600073ffffffffffffffffffffffffffffffffffffffff168573ffffffffffffffffffffffffffffffffffffffff1614151515610c0157600080fd5b8493508373ffffffffffffffffffffffffffffffffffffffff1692508273ffffffffffffffffffffffffffffffffffffffff1663269499af8b8b6040518363ffffffff167c0100000000000000000000000000000000000000000000000000000000028152600401808373ffffffffffffffffffffffffffffffffffffffff1673ffffffffffffffffffffffffffffffffffffffff168152602001826000191660001916815260200192505050600060405180830381600087803b1515610cc757600080fd5b6102c65a03f11515610cd857600080fd5b5050508991508173ffffffffffffffffffffffffffffffffffffffff1663c873b0666003338b8b6040518563ffffffff167c01000000000000000000000000000000000000000000000000000000000281526004018085600a811115610d3a57fe5b60ff1681526020018473ffffffffffffffffffffffffffffffffffffffff1673ffffffffffffffffffffffffffffffffffffffff1681526020018060200180602001838103835285818151815260200191508051906020019080838360005b83811015610db4578082015181840152602081019050610d99565b50505050905090810190601f168015610de15780820380516001836020036101000a031916815260200191505b50838103825284818151815260200191508051906020019080838360005b83811015610e1a578082015181840152602081019050610dff565b50505050905090810190601f168015610e475780820380516001836020036101000a031916815260200191505b509650505050505050600060405180830381600087803b1515610e6957600080fd5b6102c65a03f11515610e7a57600080fd5b505050505050505050505050505600a165627a7a723058200af7cbd81c99787278507f520698d4ae058331d67f177e87f1b7df2c49558d460029",
  "source": "pragma solidity ^0.4.18;\r\n\r\nimport \"./Vehicule.sol\";\r\nimport \"./Actor.sol\";\r\nimport \"./VehiculeDatabase.sol\";\r\nimport \"./ActorRegistry.sol\";\r\n\r\ncontract ServiceShop {\r\n\r\n    address REGISTRY;\r\n\r\n    function ServiceShop(address _registry) public {\r\n        REGISTRY = _registry;\r\n    }\r\n\r\n    function () public {\r\n        revert();\r\n    }\r\n\r\n    modifier onlyServiceShop {\r\n        ActorRegistry registry = ActorRegistry(REGISTRY);\r\n        require(registry.getActorType(msg.sender) == uint(Actor.ActorType.ServiceShop));\r\n        _;\r\n    }\r\n\r\n    function doService(address _vehicule, string _details, string _data) onlyServiceShop public {\r\n        Vehicule v = Vehicule(_vehicule);\r\n        v.addAction(Vehicule.EventType.Maintenance, msg.sender, _details, _data);\r\n    }\r\n\r\n    function receiveForService(address _vehicule, bytes32 _vin, string _comments, string _data) onlyServiceShop public {\r\n        ActorRegistry registry = ActorRegistry(REGISTRY);\r\n        address actorAddress = registry.getActorAddress(msg.sender);\r\n        require(actorAddress != address(0));\r\n        Actor actor = Actor(actorAddress);\r\n        VehiculeDatabase toDatabase = VehiculeDatabase(address(actor.database));\r\n        toDatabase.addVehicule(_vehicule, _vin);\r\n        Vehicule v = Vehicule(_vehicule);\r\n        v.addAction(Vehicule.EventType.ReceivedAtServiceShop, msg.sender, _comments, _data);\r\n    }\r\n\r\n    function releaseFromService(address _vehicule, bytes32 _vin, string _comments, string _data) onlyServiceShop public {\r\n        ActorRegistry registry = ActorRegistry(REGISTRY);\r\n        address actorAddress = registry.getActorAddress(msg.sender);\r\n        require(actorAddress != address(0));\r\n        Actor actor = Actor(actorAddress);\r\n        VehiculeDatabase toDatabase = VehiculeDatabase(address(actor.database));\r\n        toDatabase.deleteVehicule(_vin);\r\n        Vehicule v = Vehicule(_vehicule);\r\n        v.addAction(Vehicule.EventType.ReleaseFromServiceShop, msg.sender, _comments, _data);\r\n    }\r\n}",
  "sourcePath": "C:\\Users\\QK148GL\\Documents\\GitHub\\sensor-block-front-end\\contracts\\ServiceShop.sol",
  "compiler": {
    "name": "solc",
    "version": "0.4.18+commit.9cf6e910.Emscripten.clang"
  },
  "schemaVersion": "1.0.1",
  "updatedAt": "2017-12-18T22:24:36.877Z"
}