{
  "contractName": "ServiceShop",
  "abi": [
    {
      "constant": false,
      "inputs": [
        {
          "name": "_vehicule",
          "type": "address"
        },
        {
          "name": "_details",
          "type": "string"
        },
        {
          "name": "_data",
          "type": "string"
        }
      ],
      "name": "doService",
      "outputs": [],
      "payable": false,
      "stateMutability": "nonpayable",
      "type": "function"
    },
    {
      "inputs": [
        {
          "name": "_registry",
          "type": "address"
        }
      ],
      "payable": false,
      "stateMutability": "nonpayable",
      "type": "constructor"
    },
    {
      "payable": false,
      "stateMutability": "nonpayable",
      "type": "fallback"
    }
  ],
  "bytecode": "0x6060604052341561000f57600080fd5b60405160208061045e83398101604052808051906020019091905050806000806101000a81548173ffffffffffffffffffffffffffffffffffffffff021916908373ffffffffffffffffffffffffffffffffffffffff160217905550506103e38061007b6000396000f300606060405260043610610041576000357c0100000000000000000000000000000000000000000000000000000000900463ffffffff1680631bca4da214610051575b341561004c57600080fd5b600080fd5b341561005c57600080fd5b61010e600480803573ffffffffffffffffffffffffffffffffffffffff1690602001909190803590602001908201803590602001908080601f0160208091040260200160405190810160405280939291908181526020018383808284378201915050505050509190803590602001908201803590602001908080601f01602080910402602001604051908101604052809392919081815260200183838082843782019150505050505091905050610110565b005b6000806000809054906101000a900473ffffffffffffffffffffffffffffffffffffffff1690506002600381111561014457fe5b8173ffffffffffffffffffffffffffffffffffffffff16639ee677ed336000604051602001526040518263ffffffff167c0100000000000000000000000000000000000000000000000000000000028152600401808273ffffffffffffffffffffffffffffffffffffffff1673ffffffffffffffffffffffffffffffffffffffff168152602001915050602060405180830381600087803b15156101e757600080fd5b6102c65a03f115156101f857600080fd5b5050506040518051905014151561020e57600080fd5b8491508173ffffffffffffffffffffffffffffffffffffffff1663c873b06660043387876040518563ffffffff167c01000000000000000000000000000000000000000000000000000000000281526004018085600881111561026d57fe5b60ff1681526020018473ffffffffffffffffffffffffffffffffffffffff1673ffffffffffffffffffffffffffffffffffffffff1681526020018060200180602001838103835285818151815260200191508051906020019080838360005b838110156102e75780820151818401526020810190506102cc565b50505050905090810190601f1680156103145780820380516001836020036101000a031916815260200191505b50838103825284818151815260200191508051906020019080838360005b8381101561034d578082015181840152602081019050610332565b50505050905090810190601f16801561037a5780820380516001836020036101000a031916815260200191505b509650505050505050600060405180830381600087803b151561039c57600080fd5b6102c65a03f115156103ad57600080fd5b50505050505050505600a165627a7a72305820b8a355615cc54f1a0b428eb15c72c72de8cc57796d288c1323656375332d02700029",
  "source": "pragma solidity ^0.4.18;\r\n\r\nimport \"./Vehicule.sol\";\r\nimport \"./ActorRegistry.sol\";\r\n\r\ncontract ServiceShop {\r\n\r\n    address REGISTRY;\r\n\r\n    function ServiceShop(address _registry) public {\r\n        REGISTRY = _registry;\r\n    }\r\n\r\n    function () public {\r\n        revert();\r\n    }\r\n\r\n    modifier onlyServiceShop {\r\n        ActorRegistry registry = ActorRegistry(REGISTRY);\r\n        require(registry.getActorType(msg.sender) == uint(Actor.ActorType.ServiceShop));\r\n        _;\r\n    }\r\n\r\n    function doService(address _vehicule, string _details, string _data) onlyServiceShop public {\r\n        Vehicule v = Vehicule(_vehicule);\r\n        v.addAction(Vehicule.EventType.Maintenance, msg.sender, _details, _data);\r\n    }\r\n\r\n}",
  "sourcePath": "C:\\Users\\QK148GL\\Documents\\GitHub\\sensor-block\\contracts\\ServiceShop.sol",
  "compiler": {
    "name": "solc",
    "version": "0.4.18+commit.9cf6e910.Emscripten.clang"
  },
  "schemaVersion": "1.0.1",
  "updatedAt": "2017-12-01T16:17:39.103Z"
}