{
  "contractName": "VehiculeFactory",
  "abi": [
    {
      "constant": false,
      "inputs": [
        {
          "name": "_brand",
          "type": "string"
        },
        {
          "name": "_model",
          "type": "string"
        },
        {
          "name": "_type",
          "type": "string"
        },
        {
          "name": "_engine",
          "type": "string"
        },
        {
          "name": "_extras",
          "type": "string"
        },
        {
          "name": "_vin",
          "type": "bytes32"
        },
        {
          "name": "_year",
          "type": "uint16"
        }
      ],
      "name": "createVehicule",
      "outputs": [
        {
          "name": "",
          "type": "address"
        }
      ],
      "payable": false,
      "stateMutability": "nonpayable",
      "type": "function"
    },
    {
      "inputs": [
        {
          "name": "_registry",
          "type": "address"
        }
      ],
      "payable": false,
      "stateMutability": "nonpayable",
      "type": "constructor"
    },
    {
      "payable": false,
      "stateMutability": "nonpayable",
      "type": "fallback"
    }
  ],
  "bytecode": "0x6060604052341561000f57600080fd5b60405160208061183183398101604052808051906020019091905050806000806101000a81548173ffffffffffffffffffffffffffffffffffffffff021916908373ffffffffffffffffffffffffffffffffffffffff160217905550506117b68061007b6000396000f300606060405260043610610041576000357c0100000000000000000000000000000000000000000000000000000000900463ffffffff1680638e20ad0114610051575b341561004c57600080fd5b600080fd5b341561005c57600080fd5b6101d2600480803590602001908201803590602001908080601f0160208091040260200160405190810160405280939291908181526020018383808284378201915050505050509190803590602001908201803590602001908080601f0160208091040260200160405190810160405280939291908181526020018383808284378201915050505050509190803590602001908201803590602001908080601f0160208091040260200160405190810160405280939291908181526020018383808284378201915050505050509190803590602001908201803590602001908080601f0160208091040260200160405190810160405280939291908181526020018383808284378201915050505050509190803590602001908201803590602001908080601f016020809104026020016040519081016040528093929190818152602001838380828437820191505050505050919080356000191690602001909190803561ffff16906020019091905050610214565b604051808273ffffffffffffffffffffffffffffffffffffffff1673ffffffffffffffffffffffffffffffffffffffff16815260200191505060405180910390f35b6000806000806000806000809054906101000a900473ffffffffffffffffffffffffffffffffffffffff1690506000600381111561024e57fe5b8173ffffffffffffffffffffffffffffffffffffffff16639ee677ed336000604051602001526040518263ffffffff167c0100000000000000000000000000000000000000000000000000000000028152600401808273ffffffffffffffffffffffffffffffffffffffff1673ffffffffffffffffffffffffffffffffffffffff168152602001915050602060405180830381600087803b15156102f157600080fd5b6102c65a03f1151561030257600080fd5b5050506040518051905014151561031857600080fd5b6000809054906101000a900473ffffffffffffffffffffffffffffffffffffffff1694508473ffffffffffffffffffffffffffffffffffffffff1663804c6866336000604051602001526040518263ffffffff167c0100000000000000000000000000000000000000000000000000000000028152600401808273ffffffffffffffffffffffffffffffffffffffff1673ffffffffffffffffffffffffffffffffffffffff168152602001915050602060405180830381600087803b15156103df57600080fd5b6102c65a03f115156103f057600080fd5b505050604051805190509350838d8d8d8d8d8d8d61040c6107ee565b808973ffffffffffffffffffffffffffffffffffffffff1673ffffffffffffffffffffffffffffffffffffffff168152602001806020018060200180602001806020018060200188600019166000191681526020018761ffff1661ffff16815260200186810386528d818151815260200191508051906020019080838360005b838110156104a757808201518184015260208101905061048c565b50505050905090810190601f1680156104d45780820380516001836020036101000a031916815260200191505b5086810385528c818151815260200191508051906020019080838360005b8381101561050d5780820151818401526020810190506104f2565b50505050905090810190601f16801561053a5780820380516001836020036101000a031916815260200191505b5086810384528b818151815260200191508051906020019080838360005b83811015610573578082015181840152602081019050610558565b50505050905090810190601f1680156105a05780820380516001836020036101000a031916815260200191505b5086810383528a818151815260200191508051906020019080838360005b838110156105d95780820151818401526020810190506105be565b50505050905090810190601f1680156106065780820380516001836020036101000a031916815260200191505b50868103825289818151815260200191508051906020019080838360005b8381101561063f578082015181840152602081019050610624565b50505050905090810190601f16801561066c5780820380516001836020036101000a031916815260200191505b509d5050505050505050505050505050604051809103906000f080151561069257600080fd5b92508373ffffffffffffffffffffffffffffffffffffffff1663713b563f6000604051602001526040518163ffffffff167c0100000000000000000000000000000000000000000000000000000000028152600401602060405180830381600087803b151561070057600080fd5b6102c65a03f1151561071157600080fd5b5050506040518051905091508173ffffffffffffffffffffffffffffffffffffffff1663269499af848a6040518363ffffffff167c0100000000000000000000000000000000000000000000000000000000028152600401808373ffffffffffffffffffffffffffffffffffffffff1673ffffffffffffffffffffffffffffffffffffffff168152602001826000191660001916815260200192505050600060405180830381600087803b15156107c757600080fd5b6102c65a03f115156107d857600080fd5b5050508295505050505050979650505050505050565b604051610f8c806107ff833901905600606060405234156200001057600080fd5b60405162000f8c38038062000f8c83398101604052808051906020019091908051820191906020018051820191906020018051820191906020018051820191906020018051820191906020018051906020019091908051906020019091905050336000806101000a81548173ffffffffffffffffffffffffffffffffffffffff021916908373ffffffffffffffffffffffffffffffffffffffff160217905550436008819055508660019080519060200190620000cf92919062000271565b508560029080519060200190620000e892919062000271565b5084600390805190602001906200010192919062000271565b5083600490805190602001906200011a92919062000271565b5082600590805190602001906200013392919062000271565b50816006816000191690555080600760006101000a81548161ffff021916908361ffff160217905550876000806101000a81548173ffffffffffffffffffffffffffffffffffffffff021916908373ffffffffffffffffffffffffffffffffffffffff160217905550436000600a811115620001ab57fe5b7ffc16fdca975f4043850349503cee3fb83b3f4e9c4993f5fa16a74e160ffddf5e8a42604051808373ffffffffffffffffffffffffffffffffffffffff1673ffffffffffffffffffffffffffffffffffffffff1681526020018060200180602001848152602001838103835260118152602001807f5665686963756c65204372656174696f6e00000000000000000000000000000081525060200183810382526000815260200160200194505050505060405180910390a3505050505050505062000320565b828054600181600116156101000203166002900490600052602060002090601f016020900481019282601f10620002b457805160ff1916838001178555620002e5565b82800160010185558215620002e5579182015b82811115620002e4578251825591602001919060010190620002c7565b5b509050620002f49190620002f8565b5090565b6200031d91905b8082111562000319576000816000905550600101620002ff565b5090565b90565b610c5c80620003306000396000f30060606040526004361061006d576000357c0100000000000000000000000000000000000000000000000000000000900463ffffffff1680631865c57d146100725780631a695230146102d55780638da5cb5b1461030e578063c873b06614610363578063f2fde38b1461042e575b600080fd5b341561007d57600080fd5b610085610467565b60405180806020018060200180602001806020018060200189600019166000191681526020018861ffff1661ffff16815260200187815260200186810386528e818151815260200191508051906020019080838360005b838110156100f75780820151818401526020810190506100dc565b50505050905090810190601f1680156101245780820380516001836020036101000a031916815260200191505b5086810385528d818151815260200191508051906020019080838360005b8381101561015d578082015181840152602081019050610142565b50505050905090810190601f16801561018a5780820380516001836020036101000a031916815260200191505b5086810384528c818151815260200191508051906020019080838360005b838110156101c35780820151818401526020810190506101a8565b50505050905090810190601f1680156101f05780820380516001836020036101000a031916815260200191505b5086810383528b818151815260200191508051906020019080838360005b8381101561022957808201518184015260208101905061020e565b50505050905090810190601f1680156102565780820380516001836020036101000a031916815260200191505b5086810382528a818151815260200191508051906020019080838360005b8381101561028f578082015181840152602081019050610274565b50505050905090810190601f1680156102bc5780820380516001836020036101000a031916815260200191505b509d505050505050505050505050505060405180910390f35b34156102e057600080fd5b61030c600480803573ffffffffffffffffffffffffffffffffffffffff169060200190919050506107db565b005b341561031957600080fd5b610321610908565b604051808273ffffffffffffffffffffffffffffffffffffffff1673ffffffffffffffffffffffffffffffffffffffff16815260200191505060405180910390f35b341561036e57600080fd5b61042c600480803560ff1690602001909190803573ffffffffffffffffffffffffffffffffffffffff1690602001909190803590602001908201803590602001908080601f0160208091040260200160405190810160405280939291908181526020018383808284378201915050505050509190803590602001908201803590602001908080601f0160208091040260200160405190810160405280939291908181526020018383808284378201915050505050509190505061092d565b005b341561043957600080fd5b610465600480803573ffffffffffffffffffffffffffffffffffffffff16906020019091905050610ac7565b005b61046f610c1c565b610477610c1c565b61047f610c1c565b610487610c1c565b61048f610c1c565b600080600060016002600360046005600654600760009054906101000a900461ffff16600854878054600181600116156101000203166002900480601f01602080910402602001604051908101604052809291908181526020018280546001816001161561010002031660029004801561054a5780601f1061051f5761010080835404028352916020019161054a565b820191906000526020600020905b81548152906001019060200180831161052d57829003601f168201915b50505050509750868054600181600116156101000203166002900480601f0160208091040260200160405190810160405280929190818152602001828054600181600116156101000203166002900480156105e65780601f106105bb576101008083540402835291602001916105e6565b820191906000526020600020905b8154815290600101906020018083116105c957829003601f168201915b50505050509650858054600181600116156101000203166002900480601f0160208091040260200160405190810160405280929190818152602001828054600181600116156101000203166002900480156106825780601f1061065757610100808354040283529160200191610682565b820191906000526020600020905b81548152906001019060200180831161066557829003601f168201915b50505050509550848054600181600116156101000203166002900480601f01602080910402602001604051908101604052809291908181526020018280546001816001161561010002031660029004801561071e5780601f106106f35761010080835404028352916020019161071e565b820191906000526020600020905b81548152906001019060200180831161070157829003601f168201915b50505050509450838054600181600116156101000203166002900480601f0160208091040260200160405190810160405280929190818152602001828054600181600116156101000203166002900480156107ba5780601f1061078f576101008083540402835291602001916107ba565b820191906000526020600020905b81548152906001019060200180831161079d57829003601f168201915b50505050509350975097509750975097509750975097509091929394959697565b6000809054906101000a900473ffffffffffffffffffffffffffffffffffffffff1673ffffffffffffffffffffffffffffffffffffffff163373ffffffffffffffffffffffffffffffffffffffff1614151561083657600080fd5b61083f81610ac7565b436001600a81111561084d57fe5b7ffc16fdca975f4043850349503cee3fb83b3f4e9c4993f5fa16a74e160ffddf5e8342604051808373ffffffffffffffffffffffffffffffffffffffff1673ffffffffffffffffffffffffffffffffffffffff1681526020018060200180602001848152602001838103835260118152602001807f5665686963756c65205472616e7366657200000000000000000000000000000081525060200183810382526000815260200160200194505050505060405180910390a350565b6000809054906101000a900473ffffffffffffffffffffffffffffffffffffffff1681565b8273ffffffffffffffffffffffffffffffffffffffff163373ffffffffffffffffffffffffffffffffffffffff161415151561096857600080fd5b436008819055504384600a81111561097c57fe5b7ffc16fdca975f4043850349503cee3fb83b3f4e9c4993f5fa16a74e160ffddf5e85858542604051808573ffffffffffffffffffffffffffffffffffffffff1673ffffffffffffffffffffffffffffffffffffffff1681526020018060200180602001848152602001838103835286818151815260200191508051906020019080838360005b83811015610a1d578082015181840152602081019050610a02565b50505050905090810190601f168015610a4a5780820380516001836020036101000a031916815260200191505b50838103825285818151815260200191508051906020019080838360005b83811015610a83578082015181840152602081019050610a68565b50505050905090810190601f168015610ab05780820380516001836020036101000a031916815260200191505b50965050505050505060405180910390a350505050565b6000809054906101000a900473ffffffffffffffffffffffffffffffffffffffff1673ffffffffffffffffffffffffffffffffffffffff163373ffffffffffffffffffffffffffffffffffffffff16141515610b2257600080fd5b600073ffffffffffffffffffffffffffffffffffffffff168173ffffffffffffffffffffffffffffffffffffffff1614151515610b5e57600080fd5b8073ffffffffffffffffffffffffffffffffffffffff166000809054906101000a900473ffffffffffffffffffffffffffffffffffffffff1673ffffffffffffffffffffffffffffffffffffffff167f8be0079c531659141344cd1fd0a4f28419497f9722a3daafe3b4186f6b6457e060405160405180910390a3806000806101000a81548173ffffffffffffffffffffffffffffffffffffffff021916908373ffffffffffffffffffffffffffffffffffffffff16021790555050565b6020604051908101604052806000815250905600a165627a7a72305820139f1cadc9aa3e6d2dc74ef4dbdf701cf79ac08cc137f42a614434613d071d630029a165627a7a723058205708982c8818d09c53ccd740caef4117270953d2f0ed894b8eb6c145fb063eeb0029",
  "source": "pragma solidity ^0.4.18;\r\n\r\nimport \"./Vehicule.sol\";\r\nimport \"./VehiculeDatabase.sol\";\r\nimport \"./ActorRegistry.sol\";\r\n\r\ncontract VehiculeFactory {\r\n\r\n    address REGISTRY;\r\n\r\n    function VehiculeFactory(address _registry) public {\r\n        REGISTRY = _registry;\r\n    }\r\n\r\n    function () public {\r\n        revert();\r\n    }\r\n\r\n    modifier onlyManufacturer {\r\n        ActorRegistry registry = ActorRegistry(REGISTRY);\r\n        require(registry.getActorType(msg.sender) == uint(Actor.ActorType.Manufacturer));\r\n        _;\r\n    }\r\n\r\n    function createVehicule(string _brand, string _model, string _type, string _engine, string _extras, bytes32 _vin, uint16 _year) onlyManufacturer public returns (address) {\r\n        ActorRegistry registry = ActorRegistry(REGISTRY);\r\n        Actor actor = Actor(registry.getActorAddress(msg.sender));\r\n        Vehicule vehicule = new Vehicule(actor, _brand, _model, _type, _engine, _extras, _vin, _year);\r\n        VehiculeDatabase db = VehiculeDatabase(actor.database());\r\n        db.addVehicule(vehicule, _vin);\r\n        return vehicule;\r\n    }\r\n}",
  "sourcePath": "C:\\Users\\QK148GL\\Documents\\GitHub\\sensor-block-front-end\\contracts\\VehiculeFactory.sol",
  "compiler": {
    "name": "solc",
    "version": "0.4.18+commit.9cf6e910.Emscripten.clang"
  },
  "schemaVersion": "1.0.1",
  "updatedAt": "2017-12-18T22:24:36.794Z"
}