{
  "contractName": "VehiculeDatabase",
  "abi": [
    {
      "constant": true,
      "inputs": [],
      "name": "count",
      "outputs": [
        {
          "name": "",
          "type": "uint256"
        }
      ],
      "payable": false,
      "stateMutability": "view",
      "type": "function"
    },
    {
      "constant": false,
      "inputs": [
        {
          "name": "_vehiculeRef",
          "type": "address"
        },
        {
          "name": "_vin",
          "type": "bytes32"
        }
      ],
      "name": "addVehicule",
      "outputs": [],
      "payable": false,
      "stateMutability": "nonpayable",
      "type": "function"
    },
    {
      "constant": true,
      "inputs": [],
      "name": "owner",
      "outputs": [
        {
          "name": "",
          "type": "address"
        }
      ],
      "payable": false,
      "stateMutability": "view",
      "type": "function"
    },
    {
      "constant": false,
      "inputs": [
        {
          "name": "_vin",
          "type": "bytes32"
        }
      ],
      "name": "deleteVehicule",
      "outputs": [],
      "payable": false,
      "stateMutability": "nonpayable",
      "type": "function"
    },
    {
      "constant": true,
      "inputs": [
        {
          "name": "",
          "type": "bytes32"
        }
      ],
      "name": "vins",
      "outputs": [
        {
          "name": "",
          "type": "address"
        }
      ],
      "payable": false,
      "stateMutability": "view",
      "type": "function"
    },
    {
      "constant": false,
      "inputs": [
        {
          "name": "_toDatabase",
          "type": "address"
        },
        {
          "name": "_vin",
          "type": "bytes32"
        }
      ],
      "name": "transferTo",
      "outputs": [],
      "payable": false,
      "stateMutability": "nonpayable",
      "type": "function"
    },
    {
      "constant": false,
      "inputs": [
        {
          "name": "newOwner",
          "type": "address"
        }
      ],
      "name": "transferOwnership",
      "outputs": [],
      "payable": false,
      "stateMutability": "nonpayable",
      "type": "function"
    },
    {
      "inputs": [
        {
          "name": "_ref",
          "type": "address"
        }
      ],
      "payable": false,
      "stateMutability": "nonpayable",
      "type": "constructor"
    },
    {
      "payable": false,
      "stateMutability": "nonpayable",
      "type": "fallback"
    },
    {
      "anonymous": false,
      "inputs": [
        {
          "indexed": false,
          "name": "_vehiculeRef",
          "type": "address"
        },
        {
          "indexed": true,
          "name": "_vin",
          "type": "bytes32"
        }
      ],
      "name": "OnAddVehiculeEvent",
      "type": "event"
    },
    {
      "anonymous": false,
      "inputs": [
        {
          "indexed": true,
          "name": "previousOwner",
          "type": "address"
        },
        {
          "indexed": true,
          "name": "newOwner",
          "type": "address"
        }
      ],
      "name": "OwnershipTransferred",
      "type": "event"
    }
  ],
  "bytecode": "0x6060604052341561000f57600080fd5b60405160208061084583398101604052808051906020019091905050336000806101000a81548173ffffffffffffffffffffffffffffffffffffffff021916908373ffffffffffffffffffffffffffffffffffffffff160217905550806000806101000a81548173ffffffffffffffffffffffffffffffffffffffff021916908373ffffffffffffffffffffffffffffffffffffffff1602179055505061078a806100bb6000396000f300606060405260043610610083576000357c0100000000000000000000000000000000000000000000000000000000900463ffffffff16806306661abd14610093578063269499af146100bc5780638da5cb5b14610102578063aad46f6b14610157578063afadfa7a1461017e578063d562ac54146101e5578063f2fde38b1461022b575b341561008e57600080fd5b600080fd5b341561009e57600080fd5b6100a6610264565b6040518082815260200191505060405180910390f35b34156100c757600080fd5b610100600480803573ffffffffffffffffffffffffffffffffffffffff169060200190919080356000191690602001909190505061026a565b005b341561010d57600080fd5b61011561039f565b604051808273ffffffffffffffffffffffffffffffffffffffff1673ffffffffffffffffffffffffffffffffffffffff16815260200191505060405180910390f35b341561016257600080fd5b61017c6004808035600019169060200190919050506103c4565b005b341561018957600080fd5b6101a360048080356000191690602001909190505061046f565b604051808273ffffffffffffffffffffffffffffffffffffffff1673ffffffffffffffffffffffffffffffffffffffff16815260200191505060405180910390f35b34156101f057600080fd5b610229600480803573ffffffffffffffffffffffffffffffffffffffff16906020019091908035600019169060200190919050506104a2565b005b341561023657600080fd5b610262600480803573ffffffffffffffffffffffffffffffffffffffff16906020019091905050610609565b005b60015481565b60026000826000191660001916815260200190815260200160002060009054906101000a900460ff16151561039b57600160026000836000191660001916815260200190815260200160002060006101000a81548160ff0219169083151502179055508160036000836000191660001916815260200190815260200160002060006101000a81548173ffffffffffffffffffffffffffffffffffffffff021916908373ffffffffffffffffffffffffffffffffffffffff160217905550600180540160018190555080600019167fe31097b29f242d2c68c6450085a212fe5dac6bc43f0a708568775b1e9dbdd7af83604051808273ffffffffffffffffffffffffffffffffffffffff1673ffffffffffffffffffffffffffffffffffffffff16815260200191505060405180910390a25b5050565b6000809054906101000a900473ffffffffffffffffffffffffffffffffffffffff1681565b60026000826000191660001916815260200190815260200160002060009054906101000a900460ff1615156103f857600080fd5b60026000826000191660001916815260200190815260200160002060006101000a81549060ff021916905560036000826000191660001916815260200190815260200160002060006101000a81549073ffffffffffffffffffffffffffffffffffffffff0219169055600180540360018190555050565b60036020528060005260406000206000915054906101000a900473ffffffffffffffffffffffffffffffffffffffff1681565b60008060009054906101000a900473ffffffffffffffffffffffffffffffffffffffff1673ffffffffffffffffffffffffffffffffffffffff163373ffffffffffffffffffffffffffffffffffffffff161415156104ff57600080fd5b8290508073ffffffffffffffffffffffffffffffffffffffff1663269499af60036000856000191660001916815260200190815260200160002060009054906101000a900473ffffffffffffffffffffffffffffffffffffffff16846040518363ffffffff167c0100000000000000000000000000000000000000000000000000000000028152600401808373ffffffffffffffffffffffffffffffffffffffff1673ffffffffffffffffffffffffffffffffffffffff168152602001826000191660001916815260200192505050600060405180830381600087803b15156105e757600080fd5b6102c65a03f115156105f857600080fd5b505050610604826103c4565b505050565b6000809054906101000a900473ffffffffffffffffffffffffffffffffffffffff1673ffffffffffffffffffffffffffffffffffffffff163373ffffffffffffffffffffffffffffffffffffffff1614151561066457600080fd5b600073ffffffffffffffffffffffffffffffffffffffff168173ffffffffffffffffffffffffffffffffffffffff16141515156106a057600080fd5b8073ffffffffffffffffffffffffffffffffffffffff166000809054906101000a900473ffffffffffffffffffffffffffffffffffffffff1673ffffffffffffffffffffffffffffffffffffffff167f8be0079c531659141344cd1fd0a4f28419497f9722a3daafe3b4186f6b6457e060405160405180910390a3806000806101000a81548173ffffffffffffffffffffffffffffffffffffffff021916908373ffffffffffffffffffffffffffffffffffffffff160217905550505600a165627a7a72305820e47903191e3cefbd5e9fc4ba6c34d8b70a7ad3d15428a5ffaf3aa9727f9ad1a90029",
  "source": "pragma solidity ^0.4.18;\r\n\r\nimport \"./Ownable.sol\";\r\nimport \"./ActorRegistry.sol\";\r\n\r\ncontract VehiculeDatabase is Ownable {\r\n\r\n    uint public count;\r\n    mapping(bytes32=>bool) stored;\r\n    mapping(bytes32=>address) public vins;\r\n\r\n    function VehiculeDatabase(address _ref) public {\r\n        owner = _ref;\r\n    }\r\n\r\n    event OnAddVehiculeEvent(\r\n        address _vehiculeRef,\r\n        bytes32 indexed _vin\r\n    );\r\n\r\n    function () public {\r\n        revert();\r\n    }\r\n\r\n    function addVehicule(address _vehiculeRef, bytes32 _vin) public {\r\n        if (!stored[_vin]) {\r\n            stored[_vin] = true;\r\n            vins[_vin] = _vehiculeRef;\r\n            count = count + 1;\r\n            OnAddVehiculeEvent(_vehiculeRef, _vin);\r\n        }\r\n    }\r\n\r\n    function deleteVehicule(bytes32 _vin) public {\r\n        require(stored[_vin]);\r\n        delete stored[_vin];\r\n        delete vins[_vin];\r\n        count = count - 1; \r\n    }\r\n\r\n    function transferTo(address _toDatabase, bytes32 _vin) onlyOwner public {\r\n        VehiculeDatabase toDatabase = VehiculeDatabase(_toDatabase);\r\n        toDatabase.addVehicule(vins[_vin], _vin);\r\n        deleteVehicule(_vin);\r\n    }\r\n\r\n}",
  "sourcePath": "C:\\Users\\QK148GL\\Documents\\GitHub\\sensor-block-front-end\\contracts\\VehiculeDatabase.sol",
  "compiler": {
    "name": "solc",
    "version": "0.4.18+commit.9cf6e910.Emscripten.clang"
  },
  "schemaVersion": "1.0.1",
  "updatedAt": "2017-12-18T17:41:39.753Z"
}