{
  "contractName": "VehiculeFactory",
  "abi": [
    {
      "constant": false,
      "inputs": [
        {
          "name": "_brand",
          "type": "string"
        },
        {
          "name": "_model",
          "type": "string"
        },
        {
          "name": "_type",
          "type": "string"
        },
        {
          "name": "_engine",
          "type": "string"
        },
        {
          "name": "_extras",
          "type": "string"
        },
        {
          "name": "_vin",
          "type": "bytes32"
        },
        {
          "name": "_year",
          "type": "uint16"
        }
      ],
      "name": "createVehicule",
      "outputs": [
        {
          "name": "",
          "type": "address"
        }
      ],
      "payable": false,
      "stateMutability": "nonpayable",
      "type": "function"
    },
    {
      "inputs": [
        {
          "name": "_registry",
          "type": "address"
        }
      ],
      "payable": false,
      "stateMutability": "nonpayable",
      "type": "constructor"
    },
    {
      "payable": false,
      "stateMutability": "nonpayable",
      "type": "fallback"
    }
  ],
  "bytecode": "0x6060604052341561000f57600080fd5b60405160208061176083398101604052808051906020019091905050806000806101000a81548173ffffffffffffffffffffffffffffffffffffffff021916908373ffffffffffffffffffffffffffffffffffffffff160217905550506116e58061007b6000396000f300606060405260043610610041576000357c0100000000000000000000000000000000000000000000000000000000900463ffffffff1680638e20ad0114610051575b341561004c57600080fd5b600080fd5b341561005c57600080fd5b6101d2600480803590602001908201803590602001908080601f0160208091040260200160405190810160405280939291908181526020018383808284378201915050505050509190803590602001908201803590602001908080601f0160208091040260200160405190810160405280939291908181526020018383808284378201915050505050509190803590602001908201803590602001908080601f0160208091040260200160405190810160405280939291908181526020018383808284378201915050505050509190803590602001908201803590602001908080601f0160208091040260200160405190810160405280939291908181526020018383808284378201915050505050509190803590602001908201803590602001908080601f016020809104026020016040519081016040528093929190818152602001838380828437820191505050505050919080356000191690602001909190803561ffff16906020019091905050610214565b604051808273ffffffffffffffffffffffffffffffffffffffff1673ffffffffffffffffffffffffffffffffffffffff16815260200191505060405180910390f35b6000806000806000806000809054906101000a900473ffffffffffffffffffffffffffffffffffffffff1690506000600381111561024e57fe5b8173ffffffffffffffffffffffffffffffffffffffff16639ee677ed336000604051602001526040518263ffffffff167c0100000000000000000000000000000000000000000000000000000000028152600401808273ffffffffffffffffffffffffffffffffffffffff1673ffffffffffffffffffffffffffffffffffffffff168152602001915050602060405180830381600087803b15156102f157600080fd5b6102c65a03f1151561030257600080fd5b5050506040518051905014151561031857600080fd5b6000809054906101000a900473ffffffffffffffffffffffffffffffffffffffff1694508473ffffffffffffffffffffffffffffffffffffffff1663804c6866336000604051602001526040518263ffffffff167c0100000000000000000000000000000000000000000000000000000000028152600401808273ffffffffffffffffffffffffffffffffffffffff1673ffffffffffffffffffffffffffffffffffffffff168152602001915050602060405180830381600087803b15156103df57600080fd5b6102c65a03f115156103f057600080fd5b505050604051805190509350836000809054906101000a900473ffffffffffffffffffffffffffffffffffffffff168e8e8e8e8e8e8e61042e610843565b808a73ffffffffffffffffffffffffffffffffffffffff1673ffffffffffffffffffffffffffffffffffffffff1681526020018973ffffffffffffffffffffffffffffffffffffffff1673ffffffffffffffffffffffffffffffffffffffff168152602001806020018060200180602001806020018060200188600019166000191681526020018761ffff1661ffff16815260200186810386528d818151815260200191508051906020019080838360005b838110156104fb5780820151818401526020810190506104e0565b50505050905090810190601f1680156105285780820380516001836020036101000a031916815260200191505b5086810385528c818151815260200191508051906020019080838360005b83811015610561578082015181840152602081019050610546565b50505050905090810190601f16801561058e5780820380516001836020036101000a031916815260200191505b5086810384528b818151815260200191508051906020019080838360005b838110156105c75780820151818401526020810190506105ac565b50505050905090810190601f1680156105f45780820380516001836020036101000a031916815260200191505b5086810383528a818151815260200191508051906020019080838360005b8381101561062d578082015181840152602081019050610612565b50505050905090810190601f16801561065a5780820380516001836020036101000a031916815260200191505b50868103825289818151815260200191508051906020019080838360005b83811015610693578082015181840152602081019050610678565b50505050905090810190601f1680156106c05780820380516001836020036101000a031916815260200191505b509e505050505050505050505050505050604051809103906000f08015156106e757600080fd5b92508373ffffffffffffffffffffffffffffffffffffffff1663713b563f6000604051602001526040518163ffffffff167c0100000000000000000000000000000000000000000000000000000000028152600401602060405180830381600087803b151561075557600080fd5b6102c65a03f1151561076657600080fd5b5050506040518051905091508173ffffffffffffffffffffffffffffffffffffffff1663269499af848a6040518363ffffffff167c0100000000000000000000000000000000000000000000000000000000028152600401808373ffffffffffffffffffffffffffffffffffffffff1673ffffffffffffffffffffffffffffffffffffffff168152602001826000191660001916815260200192505050600060405180830381600087803b151561081c57600080fd5b6102c65a03f1151561082d57600080fd5b5050508295505050505050979650505050505050565b604051610e6680610854833901905600606060405234156200001057600080fd5b60405162000e6638038062000e6683398101604052808051906020019091908051906020019091908051820191906020018051820191906020018051820191906020018051820191906020018051820191906020018051906020019091908051906020019091905050336000806101000a81548173ffffffffffffffffffffffffffffffffffffffff021916908373ffffffffffffffffffffffffffffffffffffffff16021790555087600160006101000a81548173ffffffffffffffffffffffffffffffffffffffff021916908373ffffffffffffffffffffffffffffffffffffffff16021790555043600981905550866002908051906020019062000119929190620002bc565b50856003908051906020019062000132929190620002bc565b5084600490805190602001906200014b929190620002bc565b50836005908051906020019062000164929190620002bc565b5082600690805190602001906200017d929190620002bc565b50816007816000191690555080600860006101000a81548161ffff021916908361ffff160217905550886000806101000a81548173ffffffffffffffffffffffffffffffffffffffff021916908373ffffffffffffffffffffffffffffffffffffffff1602179055504360006008811115620001f557fe5b7ffc16fdca975f4043850349503cee3fb83b3f4e9c4993f5fa16a74e160ffddf5e8b42604051808373ffffffffffffffffffffffffffffffffffffffff1673ffffffffffffffffffffffffffffffffffffffff1681526020018060200180602001848152602001838103835260118152602001807f5665686963756c65204372656174696f6e00000000000000000000000000000081525060200183810382526000815260200160200194505050505060405180910390a35050505050505050506200036b565b828054600181600116156101000203166002900490600052602060002090601f016020900481019282601f10620002ff57805160ff191683800117855562000330565b8280016001018555821562000330579182015b828111156200032f57825182559160200191906001019062000312565b5b5090506200033f919062000343565b5090565b6200036891905b80821115620003645760008160009055506001016200034a565b5090565b90565b610aeb806200037b6000396000f300606060405260043610610062576000357c0100000000000000000000000000000000000000000000000000000000900463ffffffff1680631865c57d146100675780638da5cb5b146102ca578063c873b0661461031f578063f2fde38b146103ea575b600080fd5b341561007257600080fd5b61007a610423565b60405180806020018060200180602001806020018060200189600019166000191681526020018861ffff1661ffff16815260200187815260200186810386528e818151815260200191508051906020019080838360005b838110156100ec5780820151818401526020810190506100d1565b50505050905090810190601f1680156101195780820380516001836020036101000a031916815260200191505b5086810385528d818151815260200191508051906020019080838360005b83811015610152578082015181840152602081019050610137565b50505050905090810190601f16801561017f5780820380516001836020036101000a031916815260200191505b5086810384528c818151815260200191508051906020019080838360005b838110156101b857808201518184015260208101905061019d565b50505050905090810190601f1680156101e55780820380516001836020036101000a031916815260200191505b5086810383528b818151815260200191508051906020019080838360005b8381101561021e578082015181840152602081019050610203565b50505050905090810190601f16801561024b5780820380516001836020036101000a031916815260200191505b5086810382528a818151815260200191508051906020019080838360005b83811015610284578082015181840152602081019050610269565b50505050905090810190601f1680156102b15780820380516001836020036101000a031916815260200191505b509d505050505050505050505050505060405180910390f35b34156102d557600080fd5b6102dd610797565b604051808273ffffffffffffffffffffffffffffffffffffffff1673ffffffffffffffffffffffffffffffffffffffff16815260200191505060405180910390f35b341561032a57600080fd5b6103e8600480803560ff1690602001909190803573ffffffffffffffffffffffffffffffffffffffff1690602001909190803590602001908201803590602001908080601f0160208091040260200160405190810160405280939291908181526020018383808284378201915050505050509190803590602001908201803590602001908080601f016020809104026020016040519081016040528093929190818152602001838380828437820191505050505050919050506107bc565b005b34156103f557600080fd5b610421600480803573ffffffffffffffffffffffffffffffffffffffff16906020019091905050610956565b005b61042b610aab565b610433610aab565b61043b610aab565b610443610aab565b61044b610aab565b600080600060026003600460056006600754600860009054906101000a900461ffff16600954878054600181600116156101000203166002900480601f0160208091040260200160405190810160405280929190818152602001828054600181600116156101000203166002900480156105065780601f106104db57610100808354040283529160200191610506565b820191906000526020600020905b8154815290600101906020018083116104e957829003601f168201915b50505050509750868054600181600116156101000203166002900480601f0160208091040260200160405190810160405280929190818152602001828054600181600116156101000203166002900480156105a25780601f10610577576101008083540402835291602001916105a2565b820191906000526020600020905b81548152906001019060200180831161058557829003601f168201915b50505050509650858054600181600116156101000203166002900480601f01602080910402602001604051908101604052809291908181526020018280546001816001161561010002031660029004801561063e5780601f106106135761010080835404028352916020019161063e565b820191906000526020600020905b81548152906001019060200180831161062157829003601f168201915b50505050509550848054600181600116156101000203166002900480601f0160208091040260200160405190810160405280929190818152602001828054600181600116156101000203166002900480156106da5780601f106106af576101008083540402835291602001916106da565b820191906000526020600020905b8154815290600101906020018083116106bd57829003601f168201915b50505050509450838054600181600116156101000203166002900480601f0160208091040260200160405190810160405280929190818152602001828054600181600116156101000203166002900480156107765780601f1061074b57610100808354040283529160200191610776565b820191906000526020600020905b81548152906001019060200180831161075957829003601f168201915b50505050509350975097509750975097509750975097509091929394959697565b6000809054906101000a900473ffffffffffffffffffffffffffffffffffffffff1681565b8273ffffffffffffffffffffffffffffffffffffffff163373ffffffffffffffffffffffffffffffffffffffff16141515156107f757600080fd5b436009819055504384600881111561080b57fe5b7ffc16fdca975f4043850349503cee3fb83b3f4e9c4993f5fa16a74e160ffddf5e85858542604051808573ffffffffffffffffffffffffffffffffffffffff1673ffffffffffffffffffffffffffffffffffffffff1681526020018060200180602001848152602001838103835286818151815260200191508051906020019080838360005b838110156108ac578082015181840152602081019050610891565b50505050905090810190601f1680156108d95780820380516001836020036101000a031916815260200191505b50838103825285818151815260200191508051906020019080838360005b838110156109125780820151818401526020810190506108f7565b50505050905090810190601f16801561093f5780820380516001836020036101000a031916815260200191505b50965050505050505060405180910390a350505050565b6000809054906101000a900473ffffffffffffffffffffffffffffffffffffffff1673ffffffffffffffffffffffffffffffffffffffff163373ffffffffffffffffffffffffffffffffffffffff161415156109b157600080fd5b600073ffffffffffffffffffffffffffffffffffffffff168173ffffffffffffffffffffffffffffffffffffffff16141515156109ed57600080fd5b8073ffffffffffffffffffffffffffffffffffffffff166000809054906101000a900473ffffffffffffffffffffffffffffffffffffffff1673ffffffffffffffffffffffffffffffffffffffff167f8be0079c531659141344cd1fd0a4f28419497f9722a3daafe3b4186f6b6457e060405160405180910390a3806000806101000a81548173ffffffffffffffffffffffffffffffffffffffff021916908373ffffffffffffffffffffffffffffffffffffffff16021790555050565b6020604051908101604052806000815250905600a165627a7a723058202c145b811d11f1207f8cc69757c4a7ef12e6330edcb97b20a794b80a83fe4bb20029a165627a7a723058201a9cde7dbbe75fe68b7dfc6cee45370a7c7c759dce59e87f17218ad2a114bfed0029",
  "source": "pragma solidity ^0.4.18;\r\n\r\nimport \"./Vehicule.sol\";\r\nimport \"./VehiculeDatabase.sol\";\r\nimport \"./ActorRegistry.sol\";\r\n\r\ncontract VehiculeFactory {\r\n\r\n    address REGISTRY;\r\n\r\n    function VehiculeFactory(address _registry) public {\r\n        REGISTRY = _registry;\r\n    }\r\n\r\n    function () public {\r\n        revert();\r\n    }\r\n\r\n    modifier onlyManufacturer {\r\n        ActorRegistry registry = ActorRegistry(REGISTRY);\r\n        require(registry.getActorType(msg.sender) == uint(Actor.ActorType.Manufacturer));\r\n        _;\r\n    }\r\n\r\n    function createVehicule(string _brand, string _model, string _type, string _engine, string _extras, bytes32 _vin, uint16 _year) onlyManufacturer public returns (address) {\r\n        ActorRegistry registry = ActorRegistry(REGISTRY);\r\n        Actor actor = Actor(registry.getActorAddress(msg.sender));\r\n        Vehicule vehicule = new Vehicule(actor, REGISTRY, _brand, _model, _type, _engine, _extras, _vin, _year);\r\n        VehiculeDatabase db = VehiculeDatabase(actor.database());\r\n        db.addVehicule(vehicule, _vin);\r\n        return vehicule;\r\n    }\r\n}",
  "sourcePath": "C:\\Users\\QK148GL\\Documents\\GitHub\\sensor-block\\contracts\\VehiculeFactory.sol",
  "compiler": {
    "name": "solc",
    "version": "0.4.18+commit.9cf6e910.Emscripten.clang"
  },
  "schemaVersion": "1.0.1",
  "updatedAt": "2017-12-01T16:17:39.092Z"
}