{
  "contractName": "Vehicule",
  "abi": [
    {
      "constant": true,
      "inputs": [],
      "name": "model",
      "outputs": [
        {
          "name": "",
          "type": "string"
        }
      ],
      "payable": false,
      "stateMutability": "view",
      "type": "function"
    },
    {
      "constant": true,
      "inputs": [],
      "name": "brand",
      "outputs": [
        {
          "name": "",
          "type": "string"
        }
      ],
      "payable": false,
      "stateMutability": "view",
      "type": "function"
    },
    {
      "constant": true,
      "inputs": [],
      "name": "extras",
      "outputs": [
        {
          "name": "",
          "type": "string"
        }
      ],
      "payable": false,
      "stateMutability": "view",
      "type": "function"
    },
    {
      "constant": true,
      "inputs": [],
      "name": "owner",
      "outputs": [
        {
          "name": "",
          "type": "address"
        }
      ],
      "payable": false,
      "stateMutability": "view",
      "type": "function"
    },
    {
      "constant": true,
      "inputs": [],
      "name": "vType",
      "outputs": [
        {
          "name": "",
          "type": "string"
        }
      ],
      "payable": false,
      "stateMutability": "view",
      "type": "function"
    },
    {
      "constant": true,
      "inputs": [],
      "name": "vin",
      "outputs": [
        {
          "name": "",
          "type": "bytes32"
        }
      ],
      "payable": false,
      "stateMutability": "view",
      "type": "function"
    },
    {
      "constant": true,
      "inputs": [],
      "name": "lastUpdate",
      "outputs": [
        {
          "name": "",
          "type": "uint256"
        }
      ],
      "payable": false,
      "stateMutability": "view",
      "type": "function"
    },
    {
      "constant": false,
      "inputs": [
        {
          "name": "_event",
          "type": "uint8"
        },
        {
          "name": "_ref",
          "type": "address"
        },
        {
          "name": "_description",
          "type": "string"
        },
        {
          "name": "_data",
          "type": "string"
        }
      ],
      "name": "addAction",
      "outputs": [],
      "payable": false,
      "stateMutability": "nonpayable",
      "type": "function"
    },
    {
      "constant": true,
      "inputs": [],
      "name": "engine",
      "outputs": [
        {
          "name": "",
          "type": "string"
        }
      ],
      "payable": false,
      "stateMutability": "view",
      "type": "function"
    },
    {
      "constant": false,
      "inputs": [
        {
          "name": "newOwner",
          "type": "address"
        }
      ],
      "name": "transferOwnership",
      "outputs": [],
      "payable": false,
      "stateMutability": "nonpayable",
      "type": "function"
    },
    {
      "constant": true,
      "inputs": [],
      "name": "year",
      "outputs": [
        {
          "name": "",
          "type": "uint16"
        }
      ],
      "payable": false,
      "stateMutability": "view",
      "type": "function"
    },
    {
      "inputs": [
        {
          "name": "_ref",
          "type": "address"
        },
        {
          "name": "_registry",
          "type": "address"
        },
        {
          "name": "_brand",
          "type": "string"
        },
        {
          "name": "_model",
          "type": "string"
        },
        {
          "name": "_type",
          "type": "string"
        },
        {
          "name": "_engine",
          "type": "string"
        },
        {
          "name": "_extras",
          "type": "string"
        },
        {
          "name": "_vin",
          "type": "bytes32"
        },
        {
          "name": "_year",
          "type": "uint16"
        }
      ],
      "payable": false,
      "stateMutability": "nonpayable",
      "type": "constructor"
    },
    {
      "anonymous": false,
      "inputs": [
        {
          "indexed": true,
          "name": "_event",
          "type": "uint8"
        },
        {
          "indexed": false,
          "name": "_ref",
          "type": "address"
        },
        {
          "indexed": false,
          "name": "_description",
          "type": "string"
        },
        {
          "indexed": false,
          "name": "_data",
          "type": "string"
        },
        {
          "indexed": false,
          "name": "_timestamp",
          "type": "uint256"
        },
        {
          "indexed": true,
          "name": "_blockNumber",
          "type": "uint256"
        }
      ],
      "name": "OnActionEvent",
      "type": "event"
    },
    {
      "anonymous": false,
      "inputs": [
        {
          "indexed": true,
          "name": "previousOwner",
          "type": "address"
        },
        {
          "indexed": true,
          "name": "newOwner",
          "type": "address"
        }
      ],
      "name": "OwnershipTransferred",
      "type": "event"
    }
  ],
  "bytecode": "0x606060405234156200001057600080fd5b60405162000f4f38038062000f4f83398101604052808051906020019091908051906020019091908051820191906020018051820191906020018051820191906020018051820191906020018051820191906020018051906020019091908051906020019091905050336000806101000a81548173ffffffffffffffffffffffffffffffffffffffff021916908373ffffffffffffffffffffffffffffffffffffffff16021790555087600160006101000a81548173ffffffffffffffffffffffffffffffffffffffff021916908373ffffffffffffffffffffffffffffffffffffffff16021790555043600981905550866002908051906020019062000119929190620002bc565b50856003908051906020019062000132929190620002bc565b5084600490805190602001906200014b929190620002bc565b50836005908051906020019062000164929190620002bc565b5082600690805190602001906200017d929190620002bc565b50816007816000191690555080600860006101000a81548161ffff021916908361ffff160217905550886000806101000a81548173ffffffffffffffffffffffffffffffffffffffff021916908373ffffffffffffffffffffffffffffffffffffffff1602179055504360006008811115620001f557fe5b7ffc16fdca975f4043850349503cee3fb83b3f4e9c4993f5fa16a74e160ffddf5e8b42604051808373ffffffffffffffffffffffffffffffffffffffff1673ffffffffffffffffffffffffffffffffffffffff1681526020018060200180602001848152602001838103835260118152602001807f5665686963756c65204372656174696f6e00000000000000000000000000000081525060200183810382526000815260200160200194505050505060405180910390a35050505050505050506200036b565b828054600181600116156101000203166002900490600052602060002090601f016020900481019282601f10620002ff57805160ff191683800117855562000330565b8280016001018555821562000330579182015b828111156200032f57825182559160200191906001019062000312565b5b5090506200033f919062000343565b5090565b6200036891905b80821115620003645760008160009055506001016200034a565b5090565b90565b610bd4806200037b6000396000f3006060604052600436106100af576000357c0100000000000000000000000000000000000000000000000000000000900463ffffffff1680630ad9d052146100b45780632d9fff01146101425780633f7cdb8e146101d05780638da5cb5b1461025e5780639154988f146102b3578063aca2d46414610341578063c046371114610372578063c873b0661461039b578063c9d4623f14610466578063f2fde38b146104f4578063f32697161461052d575b600080fd5b34156100bf57600080fd5b6100c761055e565b6040518080602001828103825283818151815260200191508051906020019080838360005b838110156101075780820151818401526020810190506100ec565b50505050905090810190601f1680156101345780820380516001836020036101000a031916815260200191505b509250505060405180910390f35b341561014d57600080fd5b6101556105fc565b6040518080602001828103825283818151815260200191508051906020019080838360005b8381101561019557808201518184015260208101905061017a565b50505050905090810190601f1680156101c25780820380516001836020036101000a031916815260200191505b509250505060405180910390f35b34156101db57600080fd5b6101e361069a565b6040518080602001828103825283818151815260200191508051906020019080838360005b83811015610223578082015181840152602081019050610208565b50505050905090810190601f1680156102505780820380516001836020036101000a031916815260200191505b509250505060405180910390f35b341561026957600080fd5b610271610738565b604051808273ffffffffffffffffffffffffffffffffffffffff1673ffffffffffffffffffffffffffffffffffffffff16815260200191505060405180910390f35b34156102be57600080fd5b6102c661075d565b6040518080602001828103825283818151815260200191508051906020019080838360005b838110156103065780820151818401526020810190506102eb565b50505050905090810190601f1680156103335780820380516001836020036101000a031916815260200191505b509250505060405180910390f35b341561034c57600080fd5b6103546107fb565b60405180826000191660001916815260200191505060405180910390f35b341561037d57600080fd5b610385610801565b6040518082815260200191505060405180910390f35b34156103a657600080fd5b610464600480803560ff1690602001909190803573ffffffffffffffffffffffffffffffffffffffff1690602001909190803590602001908201803590602001908080601f0160208091040260200160405190810160405280939291908181526020018383808284378201915050505050509190803590602001908201803590602001908080601f01602080910402602001604051908101604052809392919081815260200183838082843782019150505050505091905050610807565b005b341561047157600080fd5b6104796109a1565b6040518080602001828103825283818151815260200191508051906020019080838360005b838110156104b957808201518184015260208101905061049e565b50505050905090810190601f1680156104e65780820380516001836020036101000a031916815260200191505b509250505060405180910390f35b34156104ff57600080fd5b61052b600480803573ffffffffffffffffffffffffffffffffffffffff16906020019091905050610a3f565b005b341561053857600080fd5b610540610b94565b604051808261ffff1661ffff16815260200191505060405180910390f35b60038054600181600116156101000203166002900480601f0160208091040260200160405190810160405280929190818152602001828054600181600116156101000203166002900480156105f45780601f106105c9576101008083540402835291602001916105f4565b820191906000526020600020905b8154815290600101906020018083116105d757829003601f168201915b505050505081565b60028054600181600116156101000203166002900480601f0160208091040260200160405190810160405280929190818152602001828054600181600116156101000203166002900480156106925780601f1061066757610100808354040283529160200191610692565b820191906000526020600020905b81548152906001019060200180831161067557829003601f168201915b505050505081565b60068054600181600116156101000203166002900480601f0160208091040260200160405190810160405280929190818152602001828054600181600116156101000203166002900480156107305780601f1061070557610100808354040283529160200191610730565b820191906000526020600020905b81548152906001019060200180831161071357829003601f168201915b505050505081565b6000809054906101000a900473ffffffffffffffffffffffffffffffffffffffff1681565b60048054600181600116156101000203166002900480601f0160208091040260200160405190810160405280929190818152602001828054600181600116156101000203166002900480156107f35780601f106107c8576101008083540402835291602001916107f3565b820191906000526020600020905b8154815290600101906020018083116107d657829003601f168201915b505050505081565b60075481565b60095481565b8273ffffffffffffffffffffffffffffffffffffffff163373ffffffffffffffffffffffffffffffffffffffff161415151561084257600080fd5b436009819055504384600881111561085657fe5b7ffc16fdca975f4043850349503cee3fb83b3f4e9c4993f5fa16a74e160ffddf5e85858542604051808573ffffffffffffffffffffffffffffffffffffffff1673ffffffffffffffffffffffffffffffffffffffff1681526020018060200180602001848152602001838103835286818151815260200191508051906020019080838360005b838110156108f75780820151818401526020810190506108dc565b50505050905090810190601f1680156109245780820380516001836020036101000a031916815260200191505b50838103825285818151815260200191508051906020019080838360005b8381101561095d578082015181840152602081019050610942565b50505050905090810190601f16801561098a5780820380516001836020036101000a031916815260200191505b50965050505050505060405180910390a350505050565b60058054600181600116156101000203166002900480601f016020809104026020016040519081016040528092919081815260200182805460018160011615610100020316600290048015610a375780601f10610a0c57610100808354040283529160200191610a37565b820191906000526020600020905b815481529060010190602001808311610a1a57829003601f168201915b505050505081565b6000809054906101000a900473ffffffffffffffffffffffffffffffffffffffff1673ffffffffffffffffffffffffffffffffffffffff163373ffffffffffffffffffffffffffffffffffffffff16141515610a9a57600080fd5b600073ffffffffffffffffffffffffffffffffffffffff168173ffffffffffffffffffffffffffffffffffffffff1614151515610ad657600080fd5b8073ffffffffffffffffffffffffffffffffffffffff166000809054906101000a900473ffffffffffffffffffffffffffffffffffffffff1673ffffffffffffffffffffffffffffffffffffffff167f8be0079c531659141344cd1fd0a4f28419497f9722a3daafe3b4186f6b6457e060405160405180910390a3806000806101000a81548173ffffffffffffffffffffffffffffffffffffffff021916908373ffffffffffffffffffffffffffffffffffffffff16021790555050565b600860009054906101000a900461ffff16815600a165627a7a72305820790d44652c4f347b85497c0dde4fa30f5e0e4191b64efcba741a195f55cb0ba50029",
  "source": "pragma solidity ^0.4.18;\r\n\r\nimport \"./Ownable.sol\";\r\n\r\ncontract Vehicule is Ownable {\r\n\r\n    address REGISTRY;\r\n\r\n    string public brand;\r\n    string public model;\r\n    string public vType;\r\n    string public engine;\r\n    string public extras;\r\n    bytes32 public vin;\r\n    uint16 public year;\r\n\r\n    uint public lastUpdate;\r\n\r\n    enum EventType {\r\n        Creation, Transfer,\r\n        ReceivedAtDealer, ReceivedAtServiceShop,\r\n        Maintenance, AutoSensor, ManualSensor,\r\n        Sell, Buy\r\n    }\r\n\r\n    event OnActionEvent (\r\n        EventType indexed _event,\r\n        address _ref,\r\n        string _description,\r\n        string _data,\r\n        uint _timestamp,\r\n        uint indexed _blockNumber\r\n    );\r\n\r\n    function Vehicule(address _ref, address _registry, string _brand, string _model, string _type, string _engine, string _extras, bytes32 _vin, uint16 _year) public {\r\n        REGISTRY = _registry;\r\n        lastUpdate = block.number;\r\n        brand = _brand;\r\n        model = _model;\r\n        vType = _type;\r\n        engine = _engine;\r\n        extras = _extras;\r\n        vin = _vin;\r\n        year = _year;\r\n        owner = _ref;\r\n        OnActionEvent(EventType.Creation, _ref, \"Vehicule Creation\",\"\", now, block.number);\r\n    }\r\n\r\n    function addAction(EventType _event, address _ref, string _description, string _data) public {\r\n        require(msg.sender != _ref);\r\n        lastUpdate = block.number;\r\n        OnActionEvent(_event, _ref, _description, _data, now, block.number);\r\n    }\r\n\r\n}",
  "sourcePath": "C:\\Users\\CQ464UC\\Documents\\git\\sensor-block\\contracts\\Vehicule.sol",
  "compiler": {
    "name": "solc",
    "version": "0.4.18+commit.9cf6e910.Emscripten.clang"
  },
  "schemaVersion": "1.0.1",
  "updatedAt": "2017-11-30T22:26:10.974Z"
}